{
  "address": "0x79D6ceb9a37B2324f62bcF20eb3Ff837EB9aA926",
  "abi": [
    {
      "inputs": [],
      "stateMutability": "nonpayable",
      "type": "constructor"
    },
    {
      "inputs": [],
      "name": "InvalidInitialization",
      "type": "error"
    },
    {
      "inputs": [],
      "name": "NotInitializing",
      "type": "error"
    },
    {
      "inputs": [
        {
          "internalType": "address",
          "name": "owner",
          "type": "address"
        }
      ],
      "name": "OwnableInvalidOwner",
      "type": "error"
    },
    {
      "inputs": [
        {
          "internalType": "address",
          "name": "account",
          "type": "address"
        }
      ],
      "name": "OwnableUnauthorizedAccount",
      "type": "error"
    },
    {
      "anonymous": false,
      "inputs": [
        {
          "indexed": false,
          "internalType": "uint256",
          "name": "campaignId",
          "type": "uint256"
        }
      ],
      "name": "CampaignLaunched",
      "type": "event"
    },
    {
      "anonymous": false,
      "inputs": [
        {
          "indexed": false,
          "internalType": "uint256",
          "name": "campaignId",
          "type": "uint256"
        },
        {
          "indexed": false,
          "internalType": "uint256",
          "name": "governorId",
          "type": "uint256"
        },
        {
          "indexed": false,
          "internalType": "uint256",
          "name": "amount",
          "type": "uint256"
        },
        {
          "indexed": false,
          "internalType": "uint256",
          "name": "tokenId",
          "type": "uint256"
        }
      ],
      "name": "Fund",
      "type": "event"
    },
    {
      "anonymous": false,
      "inputs": [
        {
          "indexed": false,
          "internalType": "uint256",
          "name": "campaignId",
          "type": "uint256"
        },
        {
          "indexed": false,
          "internalType": "uint256[]",
          "name": "governorIds",
          "type": "uint256[]"
        }
      ],
      "name": "FundAllocated",
      "type": "event"
    },
    {
      "anonymous": false,
      "inputs": [
        {
          "indexed": false,
          "internalType": "uint256",
          "name": "campaignId",
          "type": "uint256"
        },
        {
          "indexed": false,
          "internalType": "uint256",
          "name": "governorId",
          "type": "uint256"
        }
      ],
      "name": "GovernorJoined",
      "type": "event"
    },
    {
      "anonymous": false,
      "inputs": [
        {
          "indexed": false,
          "internalType": "uint64",
          "name": "version",
          "type": "uint64"
        }
      ],
      "name": "Initialized",
      "type": "event"
    },
    {
      "anonymous": false,
      "inputs": [
        {
          "indexed": true,
          "internalType": "address",
          "name": "previousOwner",
          "type": "address"
        },
        {
          "indexed": true,
          "internalType": "address",
          "name": "newOwner",
          "type": "address"
        }
      ],
      "name": "OwnershipTransferred",
      "type": "event"
    },
    {
      "inputs": [
        {
          "internalType": "uint256",
          "name": "_campaignId",
          "type": "uint256"
        },
        {
          "internalType": "address",
          "name": "_governor",
          "type": "address"
        }
      ],
      "name": "ableToVestAmount",
      "outputs": [
        {
          "internalType": "uint256",
          "name": "",
          "type": "uint256"
        }
      ],
      "stateMutability": "view",
      "type": "function"
    },
    {
      "inputs": [
        {
          "internalType": "uint256",
          "name": "campaignId",
          "type": "uint256"
        }
      ],
      "name": "allocateFunds",
      "outputs": [],
      "stateMutability": "nonpayable",
      "type": "function"
    },
    {
      "inputs": [
        {
          "internalType": "uint256",
          "name": "campaignId",
          "type": "uint256"
        }
      ],
      "name": "campaignData",
      "outputs": [
        {
          "internalType": "uint256",
          "name": "totalFunded",
          "type": "uint256"
        },
        {
          "internalType": "bytes32",
          "name": "descriptionHash",
          "type": "bytes32"
        },
        {
          "internalType": "uint64",
          "name": "fundStart",
          "type": "uint64"
        },
        {
          "internalType": "uint64",
          "name": "fundDuration",
          "type": "uint64"
        },
        {
          "internalType": "bool",
          "name": "allocated",
          "type": "bool"
        },
        {
          "internalType": "address",
          "name": "tokenRaising",
          "type": "address"
        },
        {
          "internalType": "uint256[]",
          "name": "governorIds",
          "type": "uint256[]"
        }
      ],
      "stateMutability": "view",
      "type": "function"
    },
    {
      "inputs": [
        {
          "internalType": "uint256",
          "name": "campaignId",
          "type": "uint256"
        }
      ],
      "name": "campaignFounders",
      "outputs": [
        {
          "internalType": "address",
          "name": "founder",
          "type": "address"
        }
      ],
      "stateMutability": "view",
      "type": "function"
    },
    {
      "inputs": [
        {
          "internalType": "address",
          "name": "_owner",
          "type": "address"
        }
      ],
      "name": "campaignsOwn",
      "outputs": [
        {
          "internalType": "uint256[]",
          "name": "",
          "type": "uint256[]"
        }
      ],
      "stateMutability": "view",
      "type": "function"
    },
    {
      "inputs": [
        {
          "internalType": "uint256",
          "name": "campaignId",
          "type": "uint256"
        },
        {
          "internalType": "uint256",
          "name": "governorId",
          "type": "uint256"
        }
      ],
      "name": "courseData",
      "outputs": [
        {
          "components": [
            {
              "internalType": "address",
              "name": "governor",
              "type": "address"
            },
            {
              "internalType": "uint256",
              "name": "fund",
              "type": "uint256"
            },
            {
              "internalType": "uint256",
              "name": "minted",
              "type": "uint256"
            },
            {
              "internalType": "bytes32",
              "name": "descriptionHash",
              "type": "bytes32"
            }
          ],
          "internalType": "struct ICampaign.Course",
          "name": "",
          "type": "tuple"
        }
      ],
      "stateMutability": "view",
      "type": "function"
    },
    {
      "inputs": [
        {
          "internalType": "uint256",
          "name": "campaignId",
          "type": "uint256"
        },
        {
          "internalType": "uint256",
          "name": "governorId",
          "type": "uint256"
        },
        {
          "internalType": "uint256",
          "name": "amount",
          "type": "uint256"
        }
      ],
      "name": "fund",
      "outputs": [
        {
          "internalType": "uint256",
          "name": "tokenId",
          "type": "uint256"
        }
      ],
      "stateMutability": "nonpayable",
      "type": "function"
    },
    {
      "inputs": [
        {
          "internalType": "uint256",
          "name": "campaignId",
          "type": "uint256"
        },
        {
          "internalType": "address",
          "name": "governor",
          "type": "address"
        }
      ],
      "name": "fundedAmounts",
      "outputs": [
        {
          "internalType": "uint256",
          "name": "fundedAmount",
          "type": "uint256"
        }
      ],
      "stateMutability": "view",
      "type": "function"
    },
    {
      "inputs": [
        {
          "internalType": "uint256",
          "name": "campaignId",
          "type": "uint256"
        },
        {
          "internalType": "uint256[]",
          "name": "governorIds",
          "type": "uint256[]"
        },
        {
          "internalType": "uint256[]",
          "name": "amounts",
          "type": "uint256[]"
        }
      ],
      "name": "funds",
      "outputs": [],
      "stateMutability": "nonpayable",
      "type": "function"
    },
    {
      "inputs": [],
      "name": "governorFactory",
      "outputs": [
        {
          "internalType": "contract IGovernorFactory",
          "name": "",
          "type": "address"
        }
      ],
      "stateMutability": "view",
      "type": "function"
    },
    {
      "inputs": [
        {
          "internalType": "address",
          "name": "initialOwner_",
          "type": "address"
        }
      ],
      "name": "initialize",
      "outputs": [],
      "stateMutability": "nonpayable",
      "type": "function"
    },
    {
      "inputs": [
        {
          "internalType": "address",
          "name": "investor",
          "type": "address"
        }
      ],
      "name": "investedCampaignList",
      "outputs": [
        {
          "internalType": "uint256[]",
          "name": "",
          "type": "uint256[]"
        }
      ],
      "stateMutability": "view",
      "type": "function"
    },
    {
      "inputs": [
        {
          "internalType": "address",
          "name": "investor",
          "type": "address"
        },
        {
          "internalType": "uint256",
          "name": "campaignId",
          "type": "uint256"
        }
      ],
      "name": "investedGovernorInACampaignList",
      "outputs": [
        {
          "internalType": "address[]",
          "name": "",
          "type": "address[]"
        }
      ],
      "stateMutability": "view",
      "type": "function"
    },
    {
      "inputs": [
        {
          "internalType": "address",
          "name": "investor",
          "type": "address"
        }
      ],
      "name": "investedGovernorList",
      "outputs": [
        {
          "internalType": "address[]",
          "name": "",
          "type": "address[]"
        }
      ],
      "stateMutability": "view",
      "type": "function"
    },
    {
      "inputs": [
        {
          "internalType": "address",
          "name": "investor",
          "type": "address"
        },
        {
          "internalType": "uint256",
          "name": "campaignId",
          "type": "uint256"
        }
      ],
      "name": "isInvestedCampaign",
      "outputs": [
        {
          "internalType": "bool",
          "name": "",
          "type": "bool"
        }
      ],
      "stateMutability": "view",
      "type": "function"
    },
    {
      "inputs": [
        {
          "internalType": "address",
          "name": "investor",
          "type": "address"
        },
        {
          "internalType": "address",
          "name": "governor",
          "type": "address"
        }
      ],
      "name": "isInvestedGovernor",
      "outputs": [
        {
          "internalType": "bool",
          "name": "",
          "type": "bool"
        }
      ],
      "stateMutability": "view",
      "type": "function"
    },
    {
      "inputs": [
        {
          "internalType": "address",
          "name": "investor",
          "type": "address"
        },
        {
          "internalType": "uint256",
          "name": "campaignId",
          "type": "uint256"
        },
        {
          "internalType": "address",
          "name": "governor",
          "type": "address"
        }
      ],
      "name": "isInvestedGovernorInACampaign",
      "outputs": [
        {
          "internalType": "bool",
          "name": "",
          "type": "bool"
        }
      ],
      "stateMutability": "view",
      "type": "function"
    },
    {
      "inputs": [
        {
          "internalType": "uint256",
          "name": "campaignId",
          "type": "uint256"
        },
        {
          "internalType": "address",
          "name": "governor",
          "type": "address"
        },
        {
          "internalType": "bytes32",
          "name": "descriptionHash",
          "type": "bytes32"
        }
      ],
      "name": "joinCampaign",
      "outputs": [
        {
          "internalType": "uint256",
          "name": "",
          "type": "uint256"
        }
      ],
      "stateMutability": "nonpayable",
      "type": "function"
    },
    {
      "inputs": [
        {
          "internalType": "address",
          "name": "governorAddress",
          "type": "address"
        }
      ],
      "name": "joinedCampaign",
      "outputs": [
        {
          "internalType": "uint256[]",
          "name": "",
          "type": "uint256[]"
        }
      ],
      "stateMutability": "view",
      "type": "function"
    },
    {
      "inputs": [
        {
          "internalType": "uint64",
          "name": "startFunding",
          "type": "uint64"
        },
        {
          "internalType": "uint64",
          "name": "duration",
          "type": "uint64"
        },
        {
          "internalType": "address",
          "name": "tokenRaising",
          "type": "address"
        },
        {
          "internalType": "bytes32",
          "name": "descriptionHash",
          "type": "bytes32"
        }
      ],
      "name": "launchCampaign",
      "outputs": [
        {
          "internalType": "uint256",
          "name": "",
          "type": "uint256"
        }
      ],
      "stateMutability": "nonpayable",
      "type": "function"
    },
    {
      "inputs": [],
      "name": "nextCampaignId",
      "outputs": [
        {
          "internalType": "uint256",
          "name": "",
          "type": "uint256"
        }
      ],
      "stateMutability": "view",
      "type": "function"
    },
    {
      "inputs": [],
      "name": "owner",
      "outputs": [
        {
          "internalType": "address",
          "name": "",
          "type": "address"
        }
      ],
      "stateMutability": "view",
      "type": "function"
    },
    {
      "inputs": [],
      "name": "renounceOwnership",
      "outputs": [],
      "stateMutability": "nonpayable",
      "type": "function"
    },
    {
      "inputs": [
        {
          "internalType": "contract IGovernorFactory",
          "name": "_governorFactory",
          "type": "address"
        }
      ],
      "name": "setGovernorFactory",
      "outputs": [],
      "stateMutability": "nonpayable",
      "type": "function"
    },
    {
      "inputs": [
        {
          "internalType": "uint256",
          "name": "campaignId",
          "type": "uint256"
        }
      ],
      "name": "state",
      "outputs": [
        {
          "internalType": "enum ICampaign.CampaignState",
          "name": "",
          "type": "uint8"
        }
      ],
      "stateMutability": "view",
      "type": "function"
    },
    {
      "inputs": [
        {
          "internalType": "uint256",
          "name": "campaignId",
          "type": "uint256"
        },
        {
          "internalType": "address",
          "name": "governor",
          "type": "address"
        }
      ],
      "name": "totalVesteds",
      "outputs": [
        {
          "internalType": "uint256",
          "name": "totalVested",
          "type": "uint256"
        }
      ],
      "stateMutability": "view",
      "type": "function"
    },
    {
      "inputs": [
        {
          "internalType": "address",
          "name": "newOwner",
          "type": "address"
        }
      ],
      "name": "transferOwnership",
      "outputs": [],
      "stateMutability": "nonpayable",
      "type": "function"
    },
    {
      "inputs": [
        {
          "internalType": "uint256",
          "name": "campaignId",
          "type": "uint256"
        }
      ],
      "name": "vestedDetailOfACampaign",
      "outputs": [
        {
          "internalType": "address",
          "name": "tokenAddress",
          "type": "address"
        },
        {
          "components": [
            {
              "internalType": "address",
              "name": "governor",
              "type": "address"
            },
            {
              "components": [
                {
                  "internalType": "uint256",
                  "name": "vestedAmount",
                  "type": "uint256"
                },
                {
                  "internalType": "uint256",
                  "name": "vestedTimeStamp",
                  "type": "uint256"
                }
              ],
              "internalType": "struct Campaign.VestedDetail[]",
              "name": "vestedDetails",
              "type": "tuple[]"
            }
          ],
          "internalType": "struct Campaign.VestedDetailOfACampaign[]",
          "name": "",
          "type": "tuple[]"
        }
      ],
      "stateMutability": "view",
      "type": "function"
    },
    {
      "inputs": [
        {
          "internalType": "address",
          "name": "governor",
          "type": "address"
        }
      ],
      "name": "vestedDetailOfAGovernor",
      "outputs": [
        {
          "components": [
            {
              "internalType": "uint256",
              "name": "campaignId",
              "type": "uint256"
            },
            {
              "internalType": "address",
              "name": "tokenAddress",
              "type": "address"
            },
            {
              "components": [
                {
                  "internalType": "uint256",
                  "name": "vestedAmount",
                  "type": "uint256"
                },
                {
                  "internalType": "uint256",
                  "name": "vestedTimeStamp",
                  "type": "uint256"
                }
              ],
              "internalType": "struct Campaign.VestedDetail[]",
              "name": "vestedDetails",
              "type": "tuple[]"
            }
          ],
          "internalType": "struct Campaign.VestedDetailOfAGovernor[]",
          "name": "",
          "type": "tuple[]"
        }
      ],
      "stateMutability": "view",
      "type": "function"
    },
    {
      "inputs": [
        {
          "internalType": "uint256",
          "name": "_campaignId",
          "type": "uint256"
        },
        {
          "internalType": "address",
          "name": "_governor",
          "type": "address"
        },
        {
          "internalType": "uint256",
          "name": "_amount",
          "type": "uint256"
        }
      ],
      "name": "vesting",
      "outputs": [],
      "stateMutability": "nonpayable",
      "type": "function"
    }
  ],
  "transactionHash": "0xee891b8c9e925daaeceb105e7bda66968a0dd23dedecca366bd829ced37ea749",
  "args": [],
  "numDeployments": 1,
  "solcInputHash": "73513381bd1a002767486f53e4f766fc",
  "bytecode": "0x608060405234801561001057600080fd5b5061001961001e565b6100d0565b7ff0c57e16840df040f15088dc2f81fe391c3923bec73e23a9662efc9c229c6a00805468010000000000000000900460ff161561006e5760405163f92ee8a960e01b815260040160405180910390fd5b80546001600160401b03908116146100cd5780546001600160401b0319166001600160401b0390811782556040519081527fc7f505b2f371ae2175ee4913f4499e1f2633a7b5936321eed1cdaeb6115181d29060200160405180910390a15b50565b61235380620000e06000396000f3fe608060405234801561001057600080fd5b50600436106101da5760003560e01c8063805ddab811610104578063c1e92bc4116100a2578063df0c493a11610071578063df0c493a14610585578063eb4fc0e8146105b0578063eecf6efc146105c3578063f2fde38b146105f157600080fd5b8063c1e92bc414610472578063c4d66de814610539578063c9f8cc671461054c578063d5abb06b1461055f57600080fd5b80639275909e116100de5780639275909e146104195780639791d62e14610439578063a0e712ff1461044c578063a7b270c41461045f57600080fd5b8063805ddab8146103a857806381490e5c146103c85780638da5cb5b146103e957600080fd5b806341dfef721161017c578063680d1ac31161014b578063680d1ac314610371578063715018a61461038457806375b4fbfe1461038c5780637903a7561461039f57600080fd5b806341dfef72146103185780634dbbdfef1461032b5780634df716da1461034b57806366be237a1461035e57600080fd5b80631784e0a3116101b85780631784e0a31461025e578063261265b21461028c57806337a8c88f146102b75780633e4f49e6146102f857600080fd5b80630b23dcd5146101df578063111d7d5014610228578063158fdabb14610249575b600080fd5b6102136101ed366004611c8d565b600860209081526000938452604080852082529284528284209052825290205460ff1681565b60405190151581526020015b60405180910390f35b61023b610236366004611ccf565b610604565b60405190815260200161021f565b61025c610257366004611d46565b610a7b565b005b61021361026c366004611dbf565b600660209081526000928352604080842090915290825290205460ff1681565b61023b61029a366004611deb565b600c60209081526000928352604080842090915290825290205481565b6102e06102c5366004611e1b565b6005602052600090815260409020546001600160a01b031681565b6040516001600160a01b03909116815260200161021f565b61030b610306366004611e1b565b610b1c565b60405161021f9190611e4a565b61023b610326366004611e8e565b610baf565b61033e610339366004611edb565b610caa565b60405161021f9190611f3a565b61025c610359366004611edb565b610d16565b61025c61036c366004611f4d565b610d88565b61033e61037f366004611edb565b610e60565b61025c610eca565b61033e61039a366004611edb565b610ede565b61023b60015481565b6103bb6103b6366004611dbf565b610f48565b60405161021f9190611f85565b6103db6103d6366004611e1b565b610fc8565b60405161021f92919061200d565b7f9016d09d72d40fdae2fd8ceac6b6234c7706214fd39c1cd1e609a0528c199300546001600160a01b03166102e0565b61042c610427366004611edb565b6111bb565b60405161021f9190612095565b61023b610447366004611deb565b6113a1565b6000546102e0906001600160a01b031681565b61023b61046d366004611f4d565b6113fe565b6104fd61048036600461211d565b6040805160808101825260008082526020820181905291810182905260608101919091525060009182526004602090815260408084209284526005909201815291819020815160808101835281546001600160a01b0316815260018201549381019390935260028101549183019190915260030154606082015290565b60405161021f919081516001600160a01b0316815260208083015190820152604080830151908201526060918201519181019190915260800190565b61025c610547366004611edb565b61167f565b61025c61055a366004611e1b565b6117d8565b61057261056d366004611e1b565b6119e3565b60405161021f979695949392919061213f565b61023b610593366004611deb565b600d60209081526000928352604080842090915290825290205481565b6103bb6105be366004611edb565b611a97565b6102136105d136600461219c565b600760209081526000928352604080842090915290825290205460ff1681565b61025c6105ff366004611edb565b611b0c565b6000600161061185610b1c565b600381111561062257610622611e34565b1461066a5760405162461bcd60e51b81526020600482015260136024820152724e6f7420696e2061637469766520737461746560681b60448201526064015b60405180910390fd5b60008481526004602090815260408083208684526005810190925290912080546001600160a01b03166106df5760405162461bcd60e51b815260206004820152601e60248201527f476f7665726e6f722061646472657373206973206164647265737328302900006044820152606401610661565b60038201546040516323b872dd60e01b8152336004820152306024820152604481018690526001600160a01b03909116906323b872dd906064016020604051808303816000875af1158015610738573d6000803e3d6000fd5b505050506040513d601f19601f8201168201806040525081019061075c91906121ca565b50838260000160008282546107719190612202565b925050819055508381600101600082825461078c9190612202565b9250508190555060018160020160008282546107a89190612202565b9091555050805460408051637e062a3560e11b815290516001600160a01b0390921691600091839163fc0c546a916004808201926020929091908290030181865afa1580156107fb573d6000803e3d6000fd5b505050506040513d601f19601f8201168201806040525081019061081f9190612215565b604051630ab714fb60e11b815233600482015260248101889052604481018a90529091506001600160a01b0382169063156e29f6906064016020604051808303816000875af1158015610876573d6000803e3d6000fd5b505050506040513d601f19601f8201168201806040525081019061089a9190612232565b3360009081526006602090815260408083208c845290915290205490955060ff16610900573360008181526006602090815260408083208c84528252808320805460ff191660019081179091559383526009825282208054938401815582529020018890555b3360009081526007602090815260408083206001600160a01b038616845290915290205460ff16610988573360008181526007602090815260408083206001600160a01b038716808552908352818420805460ff19166001908117909155948452600a8352908320805494850181558352912090910180546001600160a01b03191690911790555b3360009081526008602090815260408083208b845282528083206001600160a01b038616845290915290205460ff16610a28573360008181526008602090815260408083208c845282528083206001600160a01b038716808552908352818420805460ff19166001908117909155948452600b83528184208d85528352908320805494850181558352912090910180546001600160a01b03191690911790555b6040805189815260208101899052908101879052606081018690527f336ed15b643eec18be683e36c386bf18f14082156b76262ff62e0a25c14b6a259060800160405180910390a1505050509392505050565b828114610abb5760405162461bcd60e51b815260206004820152600e60248201526d092dcecc2d8d2c840d8cadccee8d60931b6044820152606401610661565b60005b83811015610b1457610b0186868684818110610adc57610adc61224b565b90506020020135858585818110610af557610af561224b565b90506020020135610604565b5080610b0c81612261565b915050610abe565b505050505050565b60008181526004602052604081206002810154429190600160801b900460ff1615610b4b575060039392505050565b60028101546001600160401b0316821015610b6a575060009392505050565b6002810154610b8b906001600160401b03600160401b82048116911661227a565b6001600160401b0316821015610ba5575060019392505050565b5060029392505050565b600180546000918083610bc28285612202565b909155505060008181526004602090815260408083206001808201889055600280830180546001600160401b038d8116600160401b026fffffffffffffffffffffffffffffffff19909216908f16171790556003830180546001600160a01b038c166001600160a01b03199182161790915533808852918652848720805493840181558752858720909201879055868652600590945293829020805490941690921790925590517fc70a7bb107b77350d05fb7507a996257711fa3b064b7d143c3c3eae1bceef08390610c989084815260200190565b60405180910390a15095945050505050565b6001600160a01b038116600090815260026020908152604091829020805483518184028101840190945280845260609392830182828015610d0a57602002820191906000526020600020905b815481526020019060010190808311610cf6575b50505050509050919050565b610d1e611b4a565b6001600160a01b038116610d665760405162461bcd60e51b815260206004820152600f60248201526e496e76616c6964206164647265737360881b6044820152606401610661565b600080546001600160a01b0319166001600160a01b0392909216919091179055565b336001600160a01b03831614610dcf5760405162461bcd60e51b815260206004820152600c60248201526b2737ba1033b7bb32b93737b960a11b6044820152606401610661565b6000838152600d602090815260408083206001600160a01b038616845290915281208054839290610e01908490612202565b90915550506000928352600e602090815260408085206001600160a01b03909416855292815282842083518085019094529183524283820190815282546001818101855593865291909420925160029091029092019182559151910155565b6001600160a01b038116600090815260036020908152604091829020805483518184028101840190945280845260609392830182828015610d0a5760200282019190600052602060002090815481526020019060010190808311610cf65750505050509050919050565b610ed2611b4a565b610edc6000611ba5565b565b6001600160a01b038116600090815260096020908152604091829020805483518184028101840190945280845260609392830182828015610d0a5760200282019190600052602060002090815481526020019060010190808311610cf65750505050509050919050565b6001600160a01b0382166000908152600b60209081526040808320848452825291829020805483518184028101840190945280845260609392830182828015610fba57602002820191906000526020600020905b81546001600160a01b03168152600190910190602001808311610f9c575b505050505090505b92915050565b6000818152600460208181526040808420928301805482518185028101850190935280835260609493869392919083018282801561102557602002820191906000526020600020905b815481526020019060010190808311611011575b50505050509050600081516001600160401b03811115611047576110476122a1565b60405190808252806020026020018201604052801561108d57816020015b6040805180820190915260008152606060208201528152602001906001900390816110655790505b50905060005b82518110156111a05760008460050160008584815181106110b6576110b661224b565b602090810291909101810151825281810192909252604090810160009081208054835180850185526001600160a01b039091168082528d8452600e86528484208185528652848420805486518189028101890190975280875293975090959194858301949093919284015b8282101561116757838290600052602060002090600202016040518060400160405290816000820154815260200160018201548152505081526020019060010190611121565b505050508152508484815181106111805761118061224b565b60200260200101819052505050808061119890612261565b915050611093565b506003909201546001600160a01b0316959194509092505050565b6001600160a01b038116600090815260036020908152604080832080548251818502810185019093528083526060949383018282801561121a57602002820191906000526020600020905b815481526020019060010190808311611206575b50505050509050600081516001600160401b0381111561123c5761123c6122a1565b60405190808252806020026020018201604052801561128957816020015b6040805160608082018352600080835260208301529181019190915281526020019060019003908161125a5790505b50905060005b82518110156113995760008382815181106112ac576112ac61224b565b6020908102919091018101516000818152600483526040808220815160608101835284815260038201546001600160a01b0390811682880152858552600e8752838520908d168552865282842080548451818902810189018652818152969850929691959386019490929184015b828210156113605783829060005260206000209060020201604051806040016040529081600082015481526020016001820154815250508152602001906001019061131a565b505050508152508484815181106113795761137961224b565b60200260200101819052505050808061139190612261565b91505061128f565b509392505050565b6000828152600c602090815260408083206001600160a01b03851680855290835281842054868552600d84528285209185529252822054808211156113f3576113ea81836122b7565b92505050610fc2565b600092505050610fc2565b600080836001600160a01b031663eb56ea716040518163ffffffff1660e01b8152600401602060405180830381865afa15801561143f573d6000803e3d6000fd5b505050506040513d601f19601f820116820180604052508101906114639190612232565b90506000846001600160a01b0316634d853ee56040518163ffffffff1660e01b8152600401602060405180830381865afa1580156114a5573d6000803e3d6000fd5b505050506040513d601f19601f820116820180604052508101906114c99190612215565b90506001600160a01b03811633146115115760405162461bcd60e51b815260206004820152600b60248201526a2737ba103337bab73232b960a91b6044820152606401610661565b600061151c87610b1c565b600381111561152d5761152d611e34565b146115715760405162461bcd60e51b81526020600482015260146024820152734e6f7420696e2070656e64696e6720737461746560601b6044820152606401610661565b60008681526004602090815260408083208584526005810190925290912080546001600160a01b0316156115df5760405162461bcd60e51b8152602060048201526015602482015274476f7665726e6f722061646472657373203d20302160581b6044820152606401610661565b80546001600160a01b0319166001600160a01b0388169081178255600380830188905560048401805460018181018355600092835260208084209092018990559382529182526040808220805494850181558252908290209092018a905581518a81529081018690527fd01d00a609014cca77bde799aad886165b079e7af92d45c16d5e3c0dba5f0cf7910160405180910390a150919695505050505050565b7ff0c57e16840df040f15088dc2f81fe391c3923bec73e23a9662efc9c229c6a008054600160401b810460ff1615906001600160401b03166000811580156116c45750825b90506000826001600160401b031660011480156116e05750303b155b9050811580156116ee575080155b1561170c5760405163f92ee8a960e01b815260040160405180910390fd5b845467ffffffffffffffff19166001178555831561173657845460ff60401b1916600160401b1785555b6001600160a01b03861661177e5760405162461bcd60e51b815260206004820152600f60248201526e496e76616c6964206164647265737360881b6044820152606401610661565b61178786611c16565b600180558315610b1457845460ff60401b19168555604051600181527fc7f505b2f371ae2175ee4913f4499e1f2633a7b5936321eed1cdaeb6115181d29060200160405180910390a1505050505050565b60026117e382610b1c565b60038111156117f4576117f4611e34565b1461183a5760405162461bcd60e51b81526020600482015260166024820152754e6f7420696e2073756363656564656420737461746560501b6044820152606401610661565b60008181526004602052604090206002810154600160801b900460ff16156118975760405162461bcd60e51b815260206004820152601060248201526f4c6f636174656420616c72656164792160801b6044820152606401610661565b60028101805460ff60801b1916600160801b17905560038101546001600160a01b031660005b60048301548110156119a15760008360040182815481106118e0576118e061224b565b6000918252602080832090910154808352600587018252604080842060018101548a8652600c855282862082546001600160a01b03908116885295529482902085905580546002820154925163b788849f60e01b8152939650909493169263b788849f9261195a9290600401918252602082015260400190565b600060405180830381600087803b15801561197457600080fd5b505af1158015611988573d6000803e3d6000fd5b505050505050808061199990612261565b9150506118bd565b507fd99b4e728fd4b8b261473efa2894112938ffa2f5c09683a9239684ea4afb126283836004016040516119d69291906122ca565b60405180910390a1505050565b60008181526004602081815260409283902080546001820154600283015460038401549584018054885181880281018801909952808952939792966001600160401b0380841697600160401b850490911696600160801b90940460ff16956001600160a01b03909216946060949390929091830182828015611a8457602002820191906000526020600020905b815481526020019060010190808311611a70575b5050505050915050919395979092949650565b6001600160a01b0381166000908152600a6020908152604091829020805483518184028101840190945280845260609392830182828015610d0a57602002820191906000526020600020905b81546001600160a01b03168152600190910190602001808311611ae35750505050509050919050565b611b14611b4a565b6001600160a01b038116611b3e57604051631e4fbdf760e01b815260006004820152602401610661565b611b4781611ba5565b50565b33611b7c7f9016d09d72d40fdae2fd8ceac6b6234c7706214fd39c1cd1e609a0528c199300546001600160a01b031690565b6001600160a01b031614610edc5760405163118cdaa760e01b8152336004820152602401610661565b7f9016d09d72d40fdae2fd8ceac6b6234c7706214fd39c1cd1e609a0528c19930080546001600160a01b031981166001600160a01b03848116918217845560405192169182907f8be0079c531659141344cd1fd0a4f28419497f9722a3daafe3b4186f6b6457e090600090a3505050565b611c1e611c27565b611b4781611c70565b7ff0c57e16840df040f15088dc2f81fe391c3923bec73e23a9662efc9c229c6a0054600160401b900460ff16610edc57604051631afcd79f60e31b815260040160405180910390fd5b611b14611c27565b6001600160a01b0381168114611b4757600080fd5b600080600060608486031215611ca257600080fd5b8335611cad81611c78565b9250602084013591506040840135611cc481611c78565b809150509250925092565b600080600060608486031215611ce457600080fd5b505081359360208301359350604090920135919050565b60008083601f840112611d0d57600080fd5b5081356001600160401b03811115611d2457600080fd5b6020830191508360208260051b8501011115611d3f57600080fd5b9250929050565b600080600080600060608688031215611d5e57600080fd5b8535945060208601356001600160401b0380821115611d7c57600080fd5b611d8889838a01611cfb565b90965094506040880135915080821115611da157600080fd5b50611dae88828901611cfb565b969995985093965092949392505050565b60008060408385031215611dd257600080fd5b8235611ddd81611c78565b946020939093013593505050565b60008060408385031215611dfe57600080fd5b823591506020830135611e1081611c78565b809150509250929050565b600060208284031215611e2d57600080fd5b5035919050565b634e487b7160e01b600052602160045260246000fd5b6020810160048310611e6c57634e487b7160e01b600052602160045260246000fd5b91905290565b80356001600160401b0381168114611e8957600080fd5b919050565b60008060008060808587031215611ea457600080fd5b611ead85611e72565b9350611ebb60208601611e72565b92506040850135611ecb81611c78565b9396929550929360600135925050565b600060208284031215611eed57600080fd5b8135611ef881611c78565b9392505050565b600081518084526020808501945080840160005b83811015611f2f57815187529582019590820190600101611f13565b509495945050505050565b602081526000611ef86020830184611eff565b600080600060608486031215611f6257600080fd5b833592506020840135611f7481611c78565b929592945050506040919091013590565b6020808252825182820181905260009190848201906040850190845b81811015611fc65783516001600160a01b031683529284019291840191600101611fa1565b50909695505050505050565b600081518084526020808501945080840160005b83811015611f2f578151805188528301518388015260409096019590820190600101611fe6565b6000604080830160018060a01b0380871685526020838187015282875180855260608801915060608160051b890101945082890160005b8281101561208557898703605f19018452815180518716885285015185880189905261207289890182611fd2565b9750509284019290840190600101612044565b50949a9950505050505050505050565b60006020808301818452808551808352604092508286019150828160051b87010184880160005b8381101561210f57888303603f19018552815180518452878101516001600160a01b03168885015286015160608785018190526120fb81860183611fd2565b9689019694505050908601906001016120bc565b509098975050505050505050565b6000806040838503121561213057600080fd5b50508035926020909101359150565b878152602081018790526001600160401b0386811660408301528516606082015283151560808201526001600160a01b03831660a082015260e060c0820181905260009061218f90830184611eff565b9998505050505050505050565b600080604083850312156121af57600080fd5b82356121ba81611c78565b91506020830135611e1081611c78565b6000602082840312156121dc57600080fd5b81518015158114611ef857600080fd5b634e487b7160e01b600052601160045260246000fd5b80820180821115610fc257610fc26121ec565b60006020828403121561222757600080fd5b8151611ef881611c78565b60006020828403121561224457600080fd5b5051919050565b634e487b7160e01b600052603260045260246000fd5b600060018201612273576122736121ec565b5060010190565b6001600160401b0381811683821601908082111561229a5761229a6121ec565b5092915050565b634e487b7160e01b600052604160045260246000fd5b81810381811115610fc257610fc26121ec565b60006040820184835260206040818501528185548084526060860191508660005282600020935060005b81811015612310578454835260019485019492840192016122f4565b509097965050505050505056fea2646970667358221220e9e348fc5d518f6cb84e211f45abf8517a1f46fae7fef7f8619e4b27cb28290264736f6c63430008140033",
  "devdoc": {
    "errors": {
      "InvalidInitialization()": [
        {
          "details": "The contract is already initialized."
        }
      ],
      "NotInitializing()": [
        {
          "details": "The contract is not initializing."
        }
      ],
      "OwnableInvalidOwner(address)": [
        {
          "details": "The owner is not a valid owner account. (eg. `address(0)`)"
        }
      ],
      "OwnableUnauthorizedAccount(address)": [
        {
          "details": "The caller account is not authorized to perform an operation."
        }
      ]
    },
    "events": {
      "Initialized(uint64)": {
        "details": "Triggered when the contract has been initialized or reinitialized."
      }
    },
    "kind": "dev",
    "methods": {
      "constructor": {
        "custom:oz-upgrades-unsafe-allow": "constructor"
      },
      "owner()": {
        "details": "Returns the address of the current owner."
      },
      "renounceOwnership()": {
        "details": "Leaves the contract without owner. It will not be possible to call `onlyOwner` functions. Can only be called by the current owner. NOTE: Renouncing ownership will leave the contract without an owner, thereby disabling any functionality that is only available to the owner."
      },
      "transferOwnership(address)": {
        "details": "Transfers ownership of the contract to a new account (`newOwner`). Can only be called by the current owner."
      }
    },
    "version": 1
  },
  "userdoc": {
    "kind": "user",
    "methods": {},
    "version": 1
  },
  "storageLayout": {
    "storage": [
      {
        "astId": 5697,
        "contract": "contracts/Campaign.sol:Campaign",
        "label": "governorFactory",
        "offset": 0,
        "slot": "0",
        "type": "t_contract(IGovernorFactory)10206"
      },
      {
        "astId": 5699,
        "contract": "contracts/Campaign.sol:Campaign",
        "label": "nextCampaignId",
        "offset": 0,
        "slot": "1",
        "type": "t_uint256"
      },
      {
        "astId": 5704,
        "contract": "contracts/Campaign.sol:Campaign",
        "label": "_campaignsOwn",
        "offset": 0,
        "slot": "2",
        "type": "t_mapping(t_address,t_array(t_uint256)dyn_storage)"
      },
      {
        "astId": 5709,
        "contract": "contracts/Campaign.sol:Campaign",
        "label": "_joinedCampaign",
        "offset": 0,
        "slot": "3",
        "type": "t_mapping(t_address,t_array(t_uint256)dyn_storage)"
      },
      {
        "astId": 5714,
        "contract": "contracts/Campaign.sol:Campaign",
        "label": "_campaigns",
        "offset": 0,
        "slot": "4",
        "type": "t_mapping(t_uint256,t_struct(CampaignCore)9815_storage)"
      },
      {
        "astId": 5718,
        "contract": "contracts/Campaign.sol:Campaign",
        "label": "campaignFounders",
        "offset": 0,
        "slot": "5",
        "type": "t_mapping(t_uint256,t_address)"
      },
      {
        "astId": 5724,
        "contract": "contracts/Campaign.sol:Campaign",
        "label": "isInvestedCampaign",
        "offset": 0,
        "slot": "6",
        "type": "t_mapping(t_address,t_mapping(t_uint256,t_bool))"
      },
      {
        "astId": 5730,
        "contract": "contracts/Campaign.sol:Campaign",
        "label": "isInvestedGovernor",
        "offset": 0,
        "slot": "7",
        "type": "t_mapping(t_address,t_mapping(t_address,t_bool))"
      },
      {
        "astId": 5738,
        "contract": "contracts/Campaign.sol:Campaign",
        "label": "isInvestedGovernorInACampaign",
        "offset": 0,
        "slot": "8",
        "type": "t_mapping(t_address,t_mapping(t_uint256,t_mapping(t_address,t_bool)))"
      },
      {
        "astId": 5743,
        "contract": "contracts/Campaign.sol:Campaign",
        "label": "_investedCampaignList",
        "offset": 0,
        "slot": "9",
        "type": "t_mapping(t_address,t_array(t_uint256)dyn_storage)"
      },
      {
        "astId": 5748,
        "contract": "contracts/Campaign.sol:Campaign",
        "label": "_investedGovernorList",
        "offset": 0,
        "slot": "10",
        "type": "t_mapping(t_address,t_array(t_address)dyn_storage)"
      },
      {
        "astId": 5755,
        "contract": "contracts/Campaign.sol:Campaign",
        "label": "_investedGovernorInACampaignList",
        "offset": 0,
        "slot": "11",
        "type": "t_mapping(t_address,t_mapping(t_uint256,t_array(t_address)dyn_storage))"
      },
      {
        "astId": 5761,
        "contract": "contracts/Campaign.sol:Campaign",
        "label": "fundedAmounts",
        "offset": 0,
        "slot": "12",
        "type": "t_mapping(t_uint256,t_mapping(t_address,t_uint256))"
      },
      {
        "astId": 5767,
        "contract": "contracts/Campaign.sol:Campaign",
        "label": "totalVesteds",
        "offset": 0,
        "slot": "13",
        "type": "t_mapping(t_uint256,t_mapping(t_address,t_uint256))"
      },
      {
        "astId": 5775,
        "contract": "contracts/Campaign.sol:Campaign",
        "label": "_vestedDetails",
        "offset": 0,
        "slot": "14",
        "type": "t_mapping(t_uint256,t_mapping(t_address,t_array(t_struct(VestedDetail)5678_storage)dyn_storage))"
      }
    ],
    "types": {
      "t_address": {
        "encoding": "inplace",
        "label": "address",
        "numberOfBytes": "20"
      },
      "t_array(t_address)dyn_storage": {
        "base": "t_address",
        "encoding": "dynamic_array",
        "label": "address[]",
        "numberOfBytes": "32"
      },
      "t_array(t_struct(VestedDetail)5678_storage)dyn_storage": {
        "base": "t_struct(VestedDetail)5678_storage",
        "encoding": "dynamic_array",
        "label": "struct Campaign.VestedDetail[]",
        "numberOfBytes": "32"
      },
      "t_array(t_uint256)dyn_storage": {
        "base": "t_uint256",
        "encoding": "dynamic_array",
        "label": "uint256[]",
        "numberOfBytes": "32"
      },
      "t_bool": {
        "encoding": "inplace",
        "label": "bool",
        "numberOfBytes": "1"
      },
      "t_bytes32": {
        "encoding": "inplace",
        "label": "bytes32",
        "numberOfBytes": "32"
      },
      "t_contract(IGovernorFactory)10206": {
        "encoding": "inplace",
        "label": "contract IGovernorFactory",
        "numberOfBytes": "20"
      },
      "t_mapping(t_address,t_array(t_address)dyn_storage)": {
        "encoding": "mapping",
        "key": "t_address",
        "label": "mapping(address => address[])",
        "numberOfBytes": "32",
        "value": "t_array(t_address)dyn_storage"
      },
      "t_mapping(t_address,t_array(t_struct(VestedDetail)5678_storage)dyn_storage)": {
        "encoding": "mapping",
        "key": "t_address",
        "label": "mapping(address => struct Campaign.VestedDetail[])",
        "numberOfBytes": "32",
        "value": "t_array(t_struct(VestedDetail)5678_storage)dyn_storage"
      },
      "t_mapping(t_address,t_array(t_uint256)dyn_storage)": {
        "encoding": "mapping",
        "key": "t_address",
        "label": "mapping(address => uint256[])",
        "numberOfBytes": "32",
        "value": "t_array(t_uint256)dyn_storage"
      },
      "t_mapping(t_address,t_bool)": {
        "encoding": "mapping",
        "key": "t_address",
        "label": "mapping(address => bool)",
        "numberOfBytes": "32",
        "value": "t_bool"
      },
      "t_mapping(t_address,t_mapping(t_address,t_bool))": {
        "encoding": "mapping",
        "key": "t_address",
        "label": "mapping(address => mapping(address => bool))",
        "numberOfBytes": "32",
        "value": "t_mapping(t_address,t_bool)"
      },
      "t_mapping(t_address,t_mapping(t_uint256,t_array(t_address)dyn_storage))": {
        "encoding": "mapping",
        "key": "t_address",
        "label": "mapping(address => mapping(uint256 => address[]))",
        "numberOfBytes": "32",
        "value": "t_mapping(t_uint256,t_array(t_address)dyn_storage)"
      },
      "t_mapping(t_address,t_mapping(t_uint256,t_bool))": {
        "encoding": "mapping",
        "key": "t_address",
        "label": "mapping(address => mapping(uint256 => bool))",
        "numberOfBytes": "32",
        "value": "t_mapping(t_uint256,t_bool)"
      },
      "t_mapping(t_address,t_mapping(t_uint256,t_mapping(t_address,t_bool)))": {
        "encoding": "mapping",
        "key": "t_address",
        "label": "mapping(address => mapping(uint256 => mapping(address => bool)))",
        "numberOfBytes": "32",
        "value": "t_mapping(t_uint256,t_mapping(t_address,t_bool))"
      },
      "t_mapping(t_address,t_uint256)": {
        "encoding": "mapping",
        "key": "t_address",
        "label": "mapping(address => uint256)",
        "numberOfBytes": "32",
        "value": "t_uint256"
      },
      "t_mapping(t_uint256,t_address)": {
        "encoding": "mapping",
        "key": "t_uint256",
        "label": "mapping(uint256 => address)",
        "numberOfBytes": "32",
        "value": "t_address"
      },
      "t_mapping(t_uint256,t_array(t_address)dyn_storage)": {
        "encoding": "mapping",
        "key": "t_uint256",
        "label": "mapping(uint256 => address[])",
        "numberOfBytes": "32",
        "value": "t_array(t_address)dyn_storage"
      },
      "t_mapping(t_uint256,t_bool)": {
        "encoding": "mapping",
        "key": "t_uint256",
        "label": "mapping(uint256 => bool)",
        "numberOfBytes": "32",
        "value": "t_bool"
      },
      "t_mapping(t_uint256,t_mapping(t_address,t_array(t_struct(VestedDetail)5678_storage)dyn_storage))": {
        "encoding": "mapping",
        "key": "t_uint256",
        "label": "mapping(uint256 => mapping(address => struct Campaign.VestedDetail[]))",
        "numberOfBytes": "32",
        "value": "t_mapping(t_address,t_array(t_struct(VestedDetail)5678_storage)dyn_storage)"
      },
      "t_mapping(t_uint256,t_mapping(t_address,t_bool))": {
        "encoding": "mapping",
        "key": "t_uint256",
        "label": "mapping(uint256 => mapping(address => bool))",
        "numberOfBytes": "32",
        "value": "t_mapping(t_address,t_bool)"
      },
      "t_mapping(t_uint256,t_mapping(t_address,t_uint256))": {
        "encoding": "mapping",
        "key": "t_uint256",
        "label": "mapping(uint256 => mapping(address => uint256))",
        "numberOfBytes": "32",
        "value": "t_mapping(t_address,t_uint256)"
      },
      "t_mapping(t_uint256,t_struct(CampaignCore)9815_storage)": {
        "encoding": "mapping",
        "key": "t_uint256",
        "label": "mapping(uint256 => struct ICampaign.CampaignCore)",
        "numberOfBytes": "32",
        "value": "t_struct(CampaignCore)9815_storage"
      },
      "t_mapping(t_uint256,t_struct(Course)9794_storage)": {
        "encoding": "mapping",
        "key": "t_uint256",
        "label": "mapping(uint256 => struct ICampaign.Course)",
        "numberOfBytes": "32",
        "value": "t_struct(Course)9794_storage"
      },
      "t_struct(CampaignCore)9815_storage": {
        "encoding": "inplace",
        "label": "struct ICampaign.CampaignCore",
        "members": [
          {
            "astId": 9796,
            "contract": "contracts/Campaign.sol:Campaign",
            "label": "totalFunded",
            "offset": 0,
            "slot": "0",
            "type": "t_uint256"
          },
          {
            "astId": 9798,
            "contract": "contracts/Campaign.sol:Campaign",
            "label": "descriptionHash",
            "offset": 0,
            "slot": "1",
            "type": "t_bytes32"
          },
          {
            "astId": 9800,
            "contract": "contracts/Campaign.sol:Campaign",
            "label": "fundStart",
            "offset": 0,
            "slot": "2",
            "type": "t_uint64"
          },
          {
            "astId": 9802,
            "contract": "contracts/Campaign.sol:Campaign",
            "label": "fundDuration",
            "offset": 8,
            "slot": "2",
            "type": "t_uint64"
          },
          {
            "astId": 9804,
            "contract": "contracts/Campaign.sol:Campaign",
            "label": "allocated",
            "offset": 16,
            "slot": "2",
            "type": "t_bool"
          },
          {
            "astId": 9806,
            "contract": "contracts/Campaign.sol:Campaign",
            "label": "tokenRaising",
            "offset": 0,
            "slot": "3",
            "type": "t_address"
          },
          {
            "astId": 9809,
            "contract": "contracts/Campaign.sol:Campaign",
            "label": "governorIds",
            "offset": 0,
            "slot": "4",
            "type": "t_array(t_uint256)dyn_storage"
          },
          {
            "astId": 9814,
            "contract": "contracts/Campaign.sol:Campaign",
            "label": "courses",
            "offset": 0,
            "slot": "5",
            "type": "t_mapping(t_uint256,t_struct(Course)9794_storage)"
          }
        ],
        "numberOfBytes": "192"
      },
      "t_struct(Course)9794_storage": {
        "encoding": "inplace",
        "label": "struct ICampaign.Course",
        "members": [
          {
            "astId": 9787,
            "contract": "contracts/Campaign.sol:Campaign",
            "label": "governor",
            "offset": 0,
            "slot": "0",
            "type": "t_address"
          },
          {
            "astId": 9789,
            "contract": "contracts/Campaign.sol:Campaign",
            "label": "fund",
            "offset": 0,
            "slot": "1",
            "type": "t_uint256"
          },
          {
            "astId": 9791,
            "contract": "contracts/Campaign.sol:Campaign",
            "label": "minted",
            "offset": 0,
            "slot": "2",
            "type": "t_uint256"
          },
          {
            "astId": 9793,
            "contract": "contracts/Campaign.sol:Campaign",
            "label": "descriptionHash",
            "offset": 0,
            "slot": "3",
            "type": "t_bytes32"
          }
        ],
        "numberOfBytes": "128"
      },
      "t_struct(VestedDetail)5678_storage": {
        "encoding": "inplace",
        "label": "struct Campaign.VestedDetail",
        "members": [
          {
            "astId": 5675,
            "contract": "contracts/Campaign.sol:Campaign",
            "label": "vestedAmount",
            "offset": 0,
            "slot": "0",
            "type": "t_uint256"
          },
          {
            "astId": 5677,
            "contract": "contracts/Campaign.sol:Campaign",
            "label": "vestedTimeStamp",
            "offset": 0,
            "slot": "1",
            "type": "t_uint256"
          }
        ],
        "numberOfBytes": "64"
      },
      "t_uint256": {
        "encoding": "inplace",
        "label": "uint256",
        "numberOfBytes": "32"
      },
      "t_uint64": {
        "encoding": "inplace",
        "label": "uint64",
        "numberOfBytes": "8"
      }
    }
  }
}