{
  "address": "0xdad5BA84f7a3014339F3e12e95CaC935b8A9d9C2",
  "abi": [
    {
      "inputs": [],
      "stateMutability": "nonpayable",
      "type": "constructor"
    },
    {
      "inputs": [],
      "name": "InvalidInitialization",
      "type": "error"
    },
    {
      "inputs": [],
      "name": "NotInitializing",
      "type": "error"
    },
    {
      "inputs": [
        {
          "internalType": "address",
          "name": "owner",
          "type": "address"
        }
      ],
      "name": "OwnableInvalidOwner",
      "type": "error"
    },
    {
      "inputs": [
        {
          "internalType": "address",
          "name": "account",
          "type": "address"
        }
      ],
      "name": "OwnableUnauthorizedAccount",
      "type": "error"
    },
    {
      "anonymous": false,
      "inputs": [
        {
          "indexed": false,
          "internalType": "uint256",
          "name": "governorId",
          "type": "uint256"
        },
        {
          "indexed": true,
          "internalType": "address",
          "name": "governor",
          "type": "address"
        },
        {
          "indexed": true,
          "internalType": "address",
          "name": "founder",
          "type": "address"
        },
        {
          "indexed": true,
          "internalType": "bytes32",
          "name": "descriptionHash",
          "type": "bytes32"
        }
      ],
      "name": "GovernorCreated",
      "type": "event"
    },
    {
      "anonymous": false,
      "inputs": [
        {
          "indexed": false,
          "internalType": "uint64",
          "name": "version",
          "type": "uint64"
        }
      ],
      "name": "Initialized",
      "type": "event"
    },
    {
      "anonymous": false,
      "inputs": [
        {
          "indexed": true,
          "internalType": "address",
          "name": "previousOwner",
          "type": "address"
        },
        {
          "indexed": true,
          "internalType": "address",
          "name": "newOwner",
          "type": "address"
        }
      ],
      "name": "OwnershipTransferred",
      "type": "event"
    },
    {
      "inputs": [
        {
          "internalType": "string",
          "name": "name",
          "type": "string"
        },
        {
          "internalType": "string",
          "name": "tokenName",
          "type": "string"
        },
        {
          "internalType": "string",
          "name": "tokenSymbol",
          "type": "string"
        },
        {
          "internalType": "bytes32",
          "name": "descriptionHash",
          "type": "bytes32"
        }
      ],
      "name": "createGovernor",
      "outputs": [
        {
          "internalType": "uint256",
          "name": "governorId",
          "type": "uint256"
        }
      ],
      "stateMutability": "payable",
      "type": "function"
    },
    {
      "inputs": [
        {
          "internalType": "address",
          "name": "founder",
          "type": "address"
        }
      ],
      "name": "founderGovernorAddresses",
      "outputs": [
        {
          "internalType": "address[]",
          "name": "",
          "type": "address[]"
        }
      ],
      "stateMutability": "view",
      "type": "function"
    },
    {
      "inputs": [
        {
          "internalType": "address",
          "name": "founder",
          "type": "address"
        }
      ],
      "name": "founderGovernorIds",
      "outputs": [
        {
          "internalType": "uint256[]",
          "name": "",
          "type": "uint256[]"
        }
      ],
      "stateMutability": "view",
      "type": "function"
    },
    {
      "inputs": [
        {
          "internalType": "uint256",
          "name": "governorId",
          "type": "uint256"
        }
      ],
      "name": "governor",
      "outputs": [
        {
          "internalType": "address",
          "name": "",
          "type": "address"
        }
      ],
      "stateMutability": "view",
      "type": "function"
    },
    {
      "inputs": [
        {
          "internalType": "address",
          "name": "governorAddress",
          "type": "address"
        }
      ],
      "name": "hasGovernor",
      "outputs": [
        {
          "internalType": "bool",
          "name": "",
          "type": "bool"
        }
      ],
      "stateMutability": "view",
      "type": "function"
    },
    {
      "inputs": [
        {
          "internalType": "address",
          "name": "initialOwner_",
          "type": "address"
        },
        {
          "internalType": "address",
          "name": "campaign_",
          "type": "address"
        },
        {
          "internalType": "uint64",
          "name": "timelockPeriod_",
          "type": "uint64"
        },
        {
          "internalType": "uint64",
          "name": "queuingPeriod_",
          "type": "uint64"
        }
      ],
      "name": "initialize",
      "outputs": [],
      "stateMutability": "nonpayable",
      "type": "function"
    },
    {
      "inputs": [],
      "name": "nextGovernorId",
      "outputs": [
        {
          "internalType": "uint256",
          "name": "",
          "type": "uint256"
        }
      ],
      "stateMutability": "view",
      "type": "function"
    },
    {
      "inputs": [],
      "name": "owner",
      "outputs": [
        {
          "internalType": "address",
          "name": "",
          "type": "address"
        }
      ],
      "stateMutability": "view",
      "type": "function"
    },
    {
      "inputs": [],
      "name": "queuingPeriod",
      "outputs": [
        {
          "internalType": "uint64",
          "name": "",
          "type": "uint64"
        }
      ],
      "stateMutability": "view",
      "type": "function"
    },
    {
      "inputs": [],
      "name": "renounceOwnership",
      "outputs": [],
      "stateMutability": "nonpayable",
      "type": "function"
    },
    {
      "inputs": [],
      "name": "timelockPeriod",
      "outputs": [
        {
          "internalType": "uint64",
          "name": "",
          "type": "uint64"
        }
      ],
      "stateMutability": "view",
      "type": "function"
    },
    {
      "inputs": [
        {
          "internalType": "address",
          "name": "newOwner",
          "type": "address"
        }
      ],
      "name": "transferOwnership",
      "outputs": [],
      "stateMutability": "nonpayable",
      "type": "function"
    },
    {
      "inputs": [],
      "name": "votingDelay",
      "outputs": [
        {
          "internalType": "uint64",
          "name": "",
          "type": "uint64"
        }
      ],
      "stateMutability": "view",
      "type": "function"
    },
    {
      "inputs": [],
      "name": "votingPeriod",
      "outputs": [
        {
          "internalType": "uint64",
          "name": "",
          "type": "uint64"
        }
      ],
      "stateMutability": "view",
      "type": "function"
    }
  ],
  "transactionHash": "0x6f59847ba55c5ca90dcccad06c90283858431fdfea4a981c56122d3183ee89d8",
  "args": [],
  "numDeployments": 1,
  "solcInputHash": "53d4dd1c45aa6ff4414f63bb5b171e49",
  "bytecode": "0x608060405234801561001057600080fd5b50615bcd806100206000396000f3fe608060405260043610620000ef5760003560e01c80639b4400dd1162000089578063c1819bfd1162000060578063c1819bfd14620002e9578063d942c838146200031d578063dba5f5321462000357578063f2fde38b146200036e57600080fd5b80639b4400dd146200024d5780639f04c5581462000272578063b02bd92014620002c057600080fd5b80634606ce1b11620000ca5780634606ce1b14620001855780635aafbe1b14620001ac578063715018a614620001e05780638da5cb5b14620001fa57600080fd5b806302a251a314620000f45780632ecaf675146200013a5780633932abb11462000163575b600080fd5b3480156200010157600080fd5b506005546200011d90600160401b90046001600160401b031681565b6040516001600160401b0390911681526020015b60405180910390f35b3480156200014757600080fd5b506005546200011d90600160801b90046001600160401b031681565b3480156200017057600080fd5b506005546200011d906001600160401b031681565b3480156200019257600080fd5b506200019d60015481565b60405190815260200162000131565b348015620001b957600080fd5b50620001d1620001cb366004620009d5565b62000393565b604051620001319190620009fa565b348015620001ed57600080fd5b50620001f8620004ac565b005b3480156200020757600080fd5b507f9016d09d72d40fdae2fd8ceac6b6234c7706214fd39c1cd1e609a0528c199300546001600160a01b03165b6040516001600160a01b03909116815260200162000131565b3480156200025a57600080fd5b50620001f86200026c36600462000a61565b620004c4565b3480156200027f57600080fd5b50620002af62000291366004620009d5565b6001600160a01b031660009081526003602052604090205460ff1690565b604051901515815260200162000131565b348015620002cd57600080fd5b506005546200011d90600160c01b90046001600160401b031681565b348015620002f657600080fd5b506200030e62000308366004620009d5565b6200068c565b60405162000131919062000abe565b3480156200032a57600080fd5b50620002346200033c36600462000af8565b6000908152600260205260409020546001600160a01b031690565b6200019d6200036836600462000bbc565b620006fa565b3480156200037b57600080fd5b50620001f86200038d366004620009d5565b6200082e565b6001600160a01b038116600090815260046020526040812054606091816001600160401b03811115620003ca57620003ca62000b12565b604051908082528060200260200182016040528015620003f4578160200160208202803683370190505b50905060005b82811015620004a4576001600160a01b0385166000908152600460205260408120805460029291908490811062000435576200043562000c55565b9060005260206000200154815260200190815260200160002060009054906101000a90046001600160a01b031682828151811062000477576200047762000c55565b6001600160a01b0390921660209283029190910190910152806200049b8162000c81565b915050620003fa565b509392505050565b620004b662000872565b620004c26000620008d0565b565b7ff0c57e16840df040f15088dc2f81fe391c3923bec73e23a9662efc9c229c6a008054600160401b810460ff1615906001600160401b03166000811580156200050a5750825b90506000826001600160401b03166001148015620005275750303b155b90508115801562000536575080155b15620005555760405163f92ee8a960e01b815260040160405180910390fd5b845467ffffffffffffffff1916600117855583156200058057845460ff60401b1916600160401b1785555b6001600160a01b038916620005ce5760405162461bcd60e51b815260206004820152600f60248201526e496e76616c6964206164647265737360881b60448201526064015b60405180910390fd5b620005d98962000941565b600080546001600160a01b0319166001600160a01b038a16179055600580546fffffffffffffffffffffffffffffffff16600160801b6001600160401b038a8116919091026001600160c01b031691909117600160c01b9189169190910217905583156200068157845460ff60401b19168555604051600181527fc7f505b2f371ae2175ee4913f4499e1f2633a7b5936321eed1cdaeb6115181d29060200160405180910390a15b505050505050505050565b6001600160a01b038116600090815260046020908152604091829020805483518184028101840190945280845260609392830182828015620006ee57602002820191906000526020600020905b815481526020019060010190808311620006d9575b50505050509050919050565b60018054908060006200070e828562000c9d565b9091555050600080546005546040518892889288928892889233926001600160a01b03909216916001600160401b03600160801b8304811692600160c01b900416906200075b90620009aa565b6200076f9998979695949392919062000d01565b604051809103906000f0801580156200078c573d6000803e3d6000fd5b50600083815260026020908152604080832080546001600160a01b0319166001600160a01b03861690811790915580845260038352818420805460ff19166001908117909155338086526004855283862080549283018155865294849020018790559051868152939450869390917f21466ef202a9992802848b92b6b11851fbcb7c88719789b3b7f6b40cbcae297b910160405180910390a450949350505050565b6200083862000872565b6001600160a01b0381166200086457604051631e4fbdf760e01b815260006004820152602401620005c5565b6200086f81620008d0565b50565b33620008a57f9016d09d72d40fdae2fd8ceac6b6234c7706214fd39c1cd1e609a0528c199300546001600160a01b031690565b6001600160a01b031614620004c25760405163118cdaa760e01b8152336004820152602401620005c5565b7f9016d09d72d40fdae2fd8ceac6b6234c7706214fd39c1cd1e609a0528c19930080546001600160a01b031981166001600160a01b03848116918217845560405192169182907f8be0079c531659141344cd1fd0a4f28419497f9722a3daafe3b4186f6b6457e090600090a3505050565b6200094b62000956565b6200086f81620009a0565b7ff0c57e16840df040f15088dc2f81fe391c3923bec73e23a9662efc9c229c6a0054600160401b900460ff16620004c257604051631afcd79f60e31b815260040160405180910390fd5b6200083862000956565b614e0a8062000d8e83390190565b80356001600160a01b0381168114620009d057600080fd5b919050565b600060208284031215620009e857600080fd5b620009f382620009b8565b9392505050565b6020808252825182820181905260009190848201906040850190845b8181101562000a3d5783516001600160a01b03168352928401929184019160010162000a16565b50909695505050505050565b80356001600160401b0381168114620009d057600080fd5b6000806000806080858703121562000a7857600080fd5b62000a8385620009b8565b935062000a9360208601620009b8565b925062000aa36040860162000a49565b915062000ab36060860162000a49565b905092959194509250565b6020808252825182820181905260009190848201906040850190845b8181101562000a3d5783518352928401929184019160010162000ada565b60006020828403121562000b0b57600080fd5b5035919050565b634e487b7160e01b600052604160045260246000fd5b600082601f83011262000b3a57600080fd5b81356001600160401b038082111562000b575762000b5762000b12565b604051601f8301601f19908116603f0116810190828211818310171562000b825762000b8262000b12565b8160405283815286602085880101111562000b9c57600080fd5b836020870160208301376000602085830101528094505050505092915050565b6000806000806080858703121562000bd357600080fd5b84356001600160401b038082111562000beb57600080fd5b62000bf98883890162000b28565b9550602087013591508082111562000c1057600080fd5b62000c1e8883890162000b28565b9450604087013591508082111562000c3557600080fd5b5062000c448782880162000b28565b949793965093946060013593505050565b634e487b7160e01b600052603260045260246000fd5b634e487b7160e01b600052601160045260246000fd5b60006001820162000c965762000c9662000c6b565b5060010190565b8082018082111562000cb35762000cb362000c6b565b92915050565b6000815180845260005b8181101562000ce15760208185018101518683018201520162000cc3565b506000602082860101526020601f19601f83011685010191505092915050565b600061012080835262000d178184018d62000cb9565b9050828103602084015262000d2d818c62000cb9565b9050828103604084015262000d43818b62000cb9565b6060840199909952505060808101959095526001600160a01b0393841660a08601529190921660c08401526001600160401b0391821660e08401521661010090910152939250505056fe60a06040523480156200001157600080fd5b5060405162004e0a38038062004e0a83398101604081905262000034916200029d565b87878482828260405162000048906200017f565b6200005693929190620003bb565b604051809103906000f08015801562000073573d6000803e3d6000fd5b506001600160a01b031660805250600191506200009390508a826200048c565b5060028690556003859055600480546001600160a01b038087166001600160a01b031992831681179093556005805491871691909216179055604051600091903090620000e0906200018d565b6001600160a01b03928316815291166020820152604001604051809103906000f08015801562000114573d6000803e3d6000fd5b50600680546001600160a01b0319166001600160a01b039290921691909117905550600e80546001600160801b0316600160801b6001600160401b03948516026001600160c01b031617600160c01b9290931691909102919091179055506200055895505050505050565b6116258062002d1083390190565b610ad5806200433583390190565b634e487b7160e01b600052604160045260246000fd5b60005b83811015620001ce578181015183820152602001620001b4565b50506000910152565b600082601f830112620001e957600080fd5b81516001600160401b03808211156200020657620002066200019b565b604051601f8301601f19908116603f011681019082821181831017156200023157620002316200019b565b816040528381528660208588010111156200024b57600080fd5b6200025e846020830160208901620001b1565b9695505050505050565b80516001600160a01b03811681146200028057600080fd5b919050565b80516001600160401b03811681146200028057600080fd5b60008060008060008060008060006101208a8c031215620002bd57600080fd5b89516001600160401b0380821115620002d557600080fd5b620002e38d838e01620001d7565b9a5060208c0151915080821115620002fa57600080fd5b620003088d838e01620001d7565b995060408c01519150808211156200031f57600080fd5b506200032e8c828d01620001d7565b97505060608a0151955060808a015194506200034d60a08b0162000268565b93506200035d60c08b0162000268565b92506200036d60e08b0162000285565b91506200037e6101008b0162000285565b90509295985092959850929598565b60008151808452620003a7816020860160208601620001b1565b601f01601f19169290920160200192915050565b606081526000620003d060608301866200038d565b8281036020840152620003e481866200038d565b91505060018060a01b0383166040830152949350505050565b600181811c908216806200041257607f821691505b6020821081036200043357634e487b7160e01b600052602260045260246000fd5b50919050565b601f8211156200048757600081815260208120601f850160051c81016020861015620004625750805b601f850160051c820191505b8181101562000483578281556001016200046e565b5050505b505050565b81516001600160401b03811115620004a857620004a86200019b565b620004c081620004b98454620003fd565b8462000439565b602080601f831160018114620004f85760008415620004df5750858301515b600019600386901b1c1916600185901b17855562000483565b600085815260208120601f198616915b82811015620005295788860151825594840194600190910190840162000508565b5085821015620005485787850151600019600388901b60f8161c191681555b5050505050600190811b01905550565b6080516127956200057b600039600081816107fb015261192901526127956000f3fe6080604052600436106101f95760003560e01c806384e2fc731161010d578063b02bd920116100a0578063ddf0b0091161006f578063ddf0b00914610797578063dea112a6146107b7578063eb56ea71146107d7578063fc0c546a146107ec578063fe0d94c11461081f57600080fd5b8063b02bd92014610710578063b788849f14610737578063c01f9e3714610757578063c59057e41461077757600080fd5b80639b644a23116100dc5780639b644a231461066e578063a9a952941461069b578063ab58fb8e146106bc578063ad044f49146106fb57600080fd5b806384e2fc73146104dd57806385dcee93146104fd57806390f37b251461051257806391ddadf41461065b57600080fd5b80633932abb1116101905780634d853ee51161015f5780634d853ee514610407578063544ffc9c1461042557806364390ff11461047a57806375794a3c146104aa578063811e539c146104bf57600080fd5b80633932abb1146103785780633e4f49e61461039857806340e58ee5146103c55780634d13a884146103e757600080fd5b806329ccde3e116101cc57806329ccde3e146102d65780632d63f693146102f65780632ecaf67514610333578063369a7bb41461035a57600080fd5b806302a251a3146101fe57806306fdde03146102475780630c0512e914610269578063143489d014610288575b600080fd5b34801561020a57600080fd5b50600e5461022a906801000000000000000090046001600160401b031681565b6040516001600160401b0390911681526020015b60405180910390f35b34801561025357600080fd5b5061025c610832565b60405161023e9190611c4d565b34801561027557600080fd5b506008545b60405190815260200161023e565b34801561029457600080fd5b506102be6102a3366004611c60565b6000908152600a60205260409020546001600160a01b031690565b6040516001600160a01b03909116815260200161023e565b3480156102e257600080fd5b5061027a6102f1366004611ed8565b6108c4565b34801561030257600080fd5b5061027a610311366004611c60565b6000908152600a6020526040902054600160a01b90046001600160401b031690565b34801561033f57600080fd5b50600e5461022a90600160801b90046001600160401b031681565b34801561036657600080fd5b506006546001600160a01b03166102be565b34801561038457600080fd5b50600e5461022a906001600160401b031681565b3480156103a457600080fd5b506103b86103b3366004611c60565b610911565b60405161023e9190611fc1565b3480156103d157600080fd5b506103e56103e0366004611c60565b610a40565b005b3480156103f357600080fd5b5061027a610402366004611fcf565b610cb9565b34801561041357600080fd5b506004546001600160a01b03166102be565b34801561043157600080fd5b5061045f610440366004611c60565b6000908152602081905260409020805460018201546002909201549092565b6040805193845260208401929092529082015260600161023e565b34801561048657600080fd5b5061049a61049536600461206b565b610cf5565b604051901515815260200161023e565b3480156104b657600080fd5b5060075461027a565b3480156104cb57600080fd5b506005546001600160a01b03166102be565b3480156104e957600080fd5b5061027a6104f836600461209e565b610d1a565b34801561050957600080fd5b5060025461027a565b34801561051e57600080fd5b506105ec61052d366004611c60565b6040805160e081018252600080825260208201819052918101829052606081018290526080810182905260a0810182905260c0810191909152506000908152600a6020908152604091829020825160e08101845281546001600160a01b03811682526001600160401b03600160a01b9091048116938201939093526001820154831693810193909352600281015460608401526003015460ff80821615156080850152610100820416151560a08401526201000090041660c082015290565b60405161023e919081516001600160a01b031681526020808301516001600160401b03908116918301919091526040808401518216908301526060808401519083015260808084015115159083015260a08381015115159083015260c092830151169181019190915260e00190565b34801561066757600080fd5b504261027a565b34801561067a57600080fd5b5061027a610689366004611c60565b60009081526009602052604090205490565b3480156106a757600080fd5b5061049a6106b6366004611c60565b50600090565b3480156106c857600080fd5b5061027a6106d7366004611c60565b6000908152600a60205260409020600301546201000090046001600160401b031690565b34801561070757600080fd5b50600d5461027a565b34801561071c57600080fd5b50600e5461022a90600160c01b90046001600160401b031681565b34801561074357600080fd5b506103e561075236600461206b565b610d74565b34801561076357600080fd5b5061027a610772366004611c60565b610dc8565b34801561078357600080fd5b5061027a6107923660046120f4565b610e09565b3480156107a357600080fd5b506103e56107b2366004611c60565b610e43565b3480156107c357600080fd5b5061027a6107d2366004612183565b6110d1565b3480156107e357600080fd5b5060035461027a565b3480156107f857600080fd5b507f00000000000000000000000000000000000000000000000000000000000000006102be565b6103e561082d366004611c60565b6110e9565b606060018054610841906121af565b80601f016020809104026020016040519081016040528092919081815260200182805461086d906121af565b80156108ba5780601f1061088f576101008083540402835291602001916108ba565b820191906000526020600020905b81548152906001019060200180831161089d57829003601f168201915b5050505050905090565b60006108d86004546001600160a01b031690565b6001600160a01b0316336001600160a01b0316146108f557600080fd5b336109058888888885898961131b565b98975050505050505050565b6000818152600a60205260408120600381015460ff80821691610100900416811561094157506007949350505050565b801561095257506002949350505050565b6000858152600a6020526040812054600160a01b90046001600160401b031690508060000361099c57604051636ad0607560e01b8152600481018790526024015b60405180910390fd5b428082106109b1575060009695505050505050565b60006109bc88610dc8565b90508181106109d357506001979650505050505050565b60008881526020819052604090208054600190910154116109fc57506003979650505050505050565b6000888152600a60205260409020600301546201000090046001600160401b0316600003610a3257506004979650505050505050565b506005979650505050505050565b610a8c81610a4e6007611547565b610a586006611547565b610a626002611547565b6001610a6f6007826121ff565b610a7a9060026122fc565b610a84919061230b565b18181861156a565b506000818152600a6020908152604080832060038101805461ff001916610100179055600b909252822090915b8154811015610c7f57610c6d826000018281548110610ada57610ada61231e565b6000918252602090912001546001840180546001600160a01b039092169184908110610b0857610b0861231e565b9060005260206000200154846002018481548110610b2857610b2861231e565b906000526020600020018054610b3d906121af565b80601f0160208091040260200160405190810160405280929190818152602001828054610b69906121af565b8015610bb65780601f10610b8b57610100808354040283529160200191610bb6565b820191906000526020600020905b815481529060010190602001808311610b9957829003601f168201915b5050505050856003018581548110610bd057610bd061231e565b906000526020600020018054610be5906121af565b80601f0160208091040260200160405190810160405280929190818152602001828054610c11906121af565b8015610c5e5780601f10610c3357610100808354040283529160200191610c5e565b820191906000526020600020905b815481529060010190602001808311610c4157829003601f168201915b505050505087600201546115b0565b80610c7781612334565b915050610ab9565b506040518381527f789cf55be980739dad1d0699b93b58e806b51c9d96619bfa8fe0a28abaa7b30c906020015b60405180910390a1505050565b60008585858585604051602001610cd495949392919061234d565b60405160208183030381529060405280519060200120905095945050505050565b60008281526020818152604080832084845260030190915290205460ff165b92915050565b600033815b8451811015610d6b57610d4d86868381518110610d3e57610d3e61231e565b602002602001015184876115dd565b610d579084612399565b925080610d6381612334565b915050610d1f565b50509392505050565b6005546001600160a01b0316336001600160a01b031614610d9457600080fd5b81600d6000828254610da69190612399565b925050819055508060076000828254610dbf9190612399565b90915550505050565b6000818152600a6020526040812060018101549054610dfa916001600160401b0390811691600160a01b9004166123ac565b6001600160401b031692915050565b600084848484604051602001610e22949392919061249f565b60408051601f19818403018152919052805160209091012095945050505050565b610e5681610e516004611547565b61156a565b506000818152600a60209081526040808320600b9092528220600e5491929091610e9a90600160801b90046001600160401b031642610e959190612399565b611675565b905060005b825481101561106557611053836000018281548110610ec057610ec061231e565b6000918252602090912001546001850180546001600160a01b039092169184908110610eee57610eee61231e565b9060005260206000200154856002018481548110610f0e57610f0e61231e565b906000526020600020018054610f23906121af565b80601f0160208091040260200160405190810160405280929190818152602001828054610f4f906121af565b8015610f9c5780601f10610f7157610100808354040283529160200191610f9c565b820191906000526020600020905b815481529060010190602001808311610f7f57829003601f168201915b5050505050866003018581548110610fb657610fb661231e565b906000526020600020018054610fcb906121af565b80601f0160208091040260200160405190810160405280929190818152602001828054610ff7906121af565b80156110445780601f1061101957610100808354040283529160200191611044565b820191906000526020600020905b81548152906001019060200180831161102757829003601f168201915b505050505088600201546116af565b8061105d81612334565b915050610e9f565b5060038301805469ffffffffffffffff00001916620100006001600160401b038416908102919091179091556040805186815260208101929092527f9a2e42fd6722813d69113e7d0079d3d940171428df7373df9c7f7617cfda2892910160405180910390a150505050565b6000336110e0858583866115dd565b95945050505050565b6110f781610e516005611547565b506000818152600a60209081526040808320600b909252822090915b81548110156112d9576112c78260000182815481106111345761113461231e565b6000918252602090912001546001840180546001600160a01b0390921691849081106111625761116261231e565b90600052602060002001548460020184815481106111825761118261231e565b906000526020600020018054611197906121af565b80601f01602080910402602001604051908101604052809291908181526020018280546111c3906121af565b80156112105780601f106111e557610100808354040283529160200191611210565b820191906000526020600020905b8154815290600101906020018083116111f357829003601f168201915b505050505085600301858154811061122a5761122a61231e565b90600052602060002001805461123f906121af565b80601f016020809104026020016040519081016040528092919081815260200182805461126b906121af565b80156112b85780601f1061128d576101008083540402835291602001916112b8565b820191906000526020600020905b81548152906001019060200180831161129b57829003601f168201915b5050505050876002015461175e565b806112d181612334565b915050611113565b5060038201805460ff191660011790556040517f712ae1383f79ac853f8d882153778e0260ef8f03b504e2866e0593e04d2b291f90610cac9085815260200190565b600061132988888888610e09565b90508651885114158061133e57508551885114155b8061134857508751155b1561137d57875186518851604051630447b05d60e41b8152600481019390935260248301919091526044820152606401610993565b6000818152600a6020526040902054600160a01b90046001600160401b0316156113c957806113ab82610911565b6040516331b75e4d60e01b81526109939291906000906004016124ea565b600880546000908152600960205260408120839055815460019291906113f0908490612399565b90915550506000818152600a6020908152604080832080546001600160401b03808916600160a01b026001600160e01b03199092166001600160a01b038b161791909117825560018201805491881667ffffffffffffffff1990921691909117905560028101899055600b835292208a5190916114719183918d0190611aa0565b50885161148790600183019060208c0190611b01565b50875161149d90600383019060208b0190611b3c565b507fac49ff3066899b93337312741adcd3e27b6c7894ca0a63cdd17839d4b4e617a783878c8c8e516001600160401b038111156114dc576114dc611c79565b60405190808252806020026020018201604052801561150f57816020015b60608152602001906001900390816114fa5790505b508d8b61151c8c826123ac565b8f6040516115329998979695949392919061250c565b60405180910390a15050979650505050505050565b600081600781111561155b5761155b611f89565b600160ff919091161b92915050565b60008061157684610911565b905060008361158483611547565b16036115a9578381846040516331b75e4d60e01b8152600401610993939291906124ea565b9392505050565b60006115bf8686868686610cb9565b6000908152600c60205260409020805460ff19169055505050505050565b60006115ed85610e516001611547565b5060075484106115fc57600080fd5b60006116088585611925565b9050611616868685846119bb565b50604080518781526020810187905260ff8516818301526060810183905290516001600160a01b038616917f09edf95a1d307616592af8ad4c162009c3a245ac77b6c828653408fcc2799952919081900360800190a295945050505050565b60006001600160401b038211156116ab57604080516306dfcc6560e41b8152600481019190915260248101839052604401610993565b5090565b60006116be8686868686610cb9565b6000818152600c602052604090205490915060ff161561173e5760405162461bcd60e51b815260206004820152603560248201527f476f7665726e6f723a3a5f71756575654f7065726174696f6e3a204f706572616044820152743a34b7b7103430b9903132b2b71038bab2bab2b21760591b6064820152608401610993565b6000908152600c60205260409020805460ff191660011790555050505050565b600061176d8686868686610cb9565b6000818152600c602052604090205490915060ff166117f45760405162461bcd60e51b815260206004820152603a60248201527f476f7665726e6f723a3a5f657865637574654f7065726174696f6e3a204f706560448201527f726174696f6e206861736e2774206265656e207175657565642e0000000000006064820152608401610993565b6000818152600c60205260408120805460ff1916905584516060910361181b575082611847565b8480519060200120846040516020016118359291906125eb565b60405160208183030381529060405290505b6000876001600160a01b03168783604051611862919061261c565b60006040518083038185875af1925050503d806000811461189f576040519150601f19603f3d011682016040523d82523d6000602084013e6118a4565b606091505b505090508061191b5760405162461bcd60e51b815260206004820152603c60248201527f476f7665726e6f723a3a5f657865637574654f7065726174696f6e3a2054726160448201527f6e73616374696f6e20657865637574696f6e2072657665727465642e000000006064820152608401610993565b5050505050505050565b60007f0000000000000000000000000000000000000000000000000000000000000000604051630340cb9b60e51b8152600481018590526001600160a01b0384811660248301529190911690636819736090604401602060405180830381865afa158015611997573d6000803e3d6000fd5b505050506040513d601f19601f820116820180604052508101906115a99190612638565b6000848152602081815260408083208684526003810190925282205460ff16156119fb57604051630715719360e31b815260048101869052602401610993565b60008581526003820160205260409020805460ff1916600117905560ff8416611a3d5782816000016000828254611a329190612399565b90915550611a969050565b60001960ff851601611a5d5782816001016000828254611a329190612399565b60011960ff851601611a7d5782816002016000828254611a329190612399565b6040516303599be160e11b815260040160405180910390fd5b5090949350505050565b828054828255906000526020600020908101928215611af5579160200282015b82811115611af557825182546001600160a01b0319166001600160a01b03909116178255602090920191600190910190611ac0565b506116ab929150611b8e565b828054828255906000526020600020908101928215611af5579160200282015b82811115611af5578251825591602001919060010190611b21565b828054828255906000526020600020908101928215611b82579160200282015b82811115611b825782518290611b7290826126a0565b5091602001919060010190611b5c565b506116ab929150611ba3565b5b808211156116ab5760008155600101611b8f565b808211156116ab576000611bb78282611bc0565b50600101611ba3565b508054611bcc906121af565b6000825580601f10611bdc575050565b601f016020900490600052602060002090810190611bfa9190611b8e565b50565b60005b83811015611c18578181015183820152602001611c00565b50506000910152565b60008151808452611c39816020860160208601611bfd565b601f01601f19169290920160200192915050565b6020815260006115a96020830184611c21565b600060208284031215611c7257600080fd5b5035919050565b634e487b7160e01b600052604160045260246000fd5b604051601f8201601f191681016001600160401b0381118282101715611cb757611cb7611c79565b604052919050565b60006001600160401b03821115611cd857611cd8611c79565b5060051b60200190565b80356001600160a01b0381168114611cf957600080fd5b919050565b600082601f830112611d0f57600080fd5b81356020611d24611d1f83611cbf565b611c8f565b82815260059290921b84018101918181019086841115611d4357600080fd5b8286015b84811015611d6557611d5881611ce2565b8352918301918301611d47565b509695505050505050565b600082601f830112611d8157600080fd5b81356020611d91611d1f83611cbf565b82815260059290921b84018101918181019086841115611db057600080fd5b8286015b84811015611d655780358352918301918301611db4565b60006001600160401b03831115611de457611de4611c79565b611df7601f8401601f1916602001611c8f565b9050828152838383011115611e0b57600080fd5b828260208301376000602084830101529392505050565b600082601f830112611e3357600080fd5b6115a983833560208501611dcb565b600082601f830112611e5357600080fd5b81356020611e63611d1f83611cbf565b82815260059290921b84018101918181019086841115611e8257600080fd5b8286015b84811015611d655780356001600160401b03811115611ea55760008081fd5b611eb38986838b0101611e22565b845250918301918301611e86565b80356001600160401b0381168114611cf957600080fd5b60008060008060008060c08789031215611ef157600080fd5b86356001600160401b0380821115611f0857600080fd5b611f148a838b01611cfe565b97506020890135915080821115611f2a57600080fd5b611f368a838b01611d70565b96506040890135915080821115611f4c57600080fd5b50611f5989828a01611e42565b94505060608701359250611f6f60808801611ec1565b9150611f7d60a08801611ec1565b90509295509295509295565b634e487b7160e01b600052602160045260246000fd5b60088110611fbd57634e487b7160e01b600052602160045260246000fd5b9052565b60208101610d148284611f9f565b600080600080600060a08688031215611fe757600080fd5b611ff086611ce2565b94506020860135935060408601356001600160401b038082111561201357600080fd5b818801915088601f83011261202757600080fd5b61203689833560208501611dcb565b9450606088013591508082111561204c57600080fd5b5061205988828901611e22565b95989497509295608001359392505050565b6000806040838503121561207e57600080fd5b50508035926020909101359150565b803560ff81168114611cf957600080fd5b6000806000606084860312156120b357600080fd5b8335925060208401356001600160401b038111156120d057600080fd5b6120dc86828701611d70565b9250506120eb6040850161208d565b90509250925092565b6000806000806080858703121561210a57600080fd5b84356001600160401b038082111561212157600080fd5b61212d88838901611cfe565b9550602087013591508082111561214357600080fd5b61214f88838901611d70565b9450604087013591508082111561216557600080fd5b5061217287828801611e42565b949793965093946060013593505050565b60008060006060848603121561219857600080fd5b83359250602084013591506120eb6040850161208d565b600181811c908216806121c357607f821691505b6020821081036121e357634e487b7160e01b600052602260045260246000fd5b50919050565b634e487b7160e01b600052601160045260246000fd5b60ff8181168382160190811115610d1457610d146121e9565b600181815b80851115612253578160001904821115612239576122396121e9565b8085161561224657918102915b93841c939080029061221d565b509250929050565b60008261226a57506001610d14565b8161227757506000610d14565b816001811461228d5760028114612297576122b3565b6001915050610d14565b60ff8411156122a8576122a86121e9565b50506001821b610d14565b5060208310610133831016604e8410600b84101617156122d6575081810a610d14565b6122e08383612218565b80600019048211156122f4576122f46121e9565b029392505050565b60006115a960ff84168361225b565b81810381811115610d1457610d146121e9565b634e487b7160e01b600052603260045260246000fd5b600060018201612346576123466121e9565b5060010190565b60018060a01b038616815284602082015260a06040820152600061237460a0830186611c21565b82810360608401526123868186611c21565b9150508260808301529695505050505050565b80820180821115610d1457610d146121e9565b6001600160401b038181168382160190808211156123cc576123cc6121e9565b5092915050565b600081518084526020808501945080840160005b8381101561240c5781516001600160a01b0316875295820195908201906001016123e7565b509495945050505050565b600081518084526020808501945080840160005b8381101561240c5781518752958201959082019060010161242b565b600082825180855260208086019550808260051b84010181860160005b8481101561249257601f19868403018952612480838351611c21565b98840198925090830190600101612464565b5090979650505050505050565b6080815260006124b260808301876123d3565b82810360208401526124c48187612417565b905082810360408401526124d88186612447565b91505082606083015295945050505050565b838152606081016124fe6020830185611f9f565b826040830152949350505050565b60006101208b8352602060018060a01b038c16818501528160408501526125358285018c6123d3565b91508382036060850152612549828b612417565b915083820360808501528189518084528284019150828160051b850101838c0160005b8381101561259a57601f19878403018552612588838351611c21565b9486019492509085019060010161256c565b505086810360a08801526125ae818c612447565b955050505050506125ca60c08301866001600160401b03169052565b6001600160401b039390931660e08201526101000152979650505050505050565b6001600160e01b031983168152815160009061260e816004850160208701611bfd565b919091016004019392505050565b6000825161262e818460208701611bfd565b9190910192915050565b60006020828403121561264a57600080fd5b5051919050565b601f82111561269b57600081815260208120601f850160051c810160208610156126785750805b601f850160051c820191505b8181101561269757828155600101612684565b5050505b505050565b81516001600160401b038111156126b9576126b9611c79565b6126cd816126c784546121af565b84612651565b602080601f83116001811461270257600084156126ea5750858301515b600019600386901b1c1916600185901b178555612697565b600085815260208120601f198616915b8281101561273157888601518255948401946001909101908401612712565b508582101561274f5787850151600019600388901b60f8161c191681555b5050505050600190811b0190555056fea2646970667358221220b2d236df597ff0947ebecc33b2c9800c419f65da95038da8d6aae60167987cfb64736f6c6343000814003360806040523480156200001157600080fd5b506040516200162538038062001625833981016040819052620000349162000145565b8282600062000044838262000261565b50600162000053828262000261565b5050600680546001600160a01b0319166001600160a01b039390931692909217909155506200032d915050565b634e487b7160e01b600052604160045260246000fd5b600082601f830112620000a857600080fd5b81516001600160401b0380821115620000c557620000c562000080565b604051601f8301601f19908116603f01168101908282118183101715620000f057620000f062000080565b816040528381526020925086838588010111156200010d57600080fd5b600091505b8382101562000131578582018301518183018401529082019062000112565b600093810190920192909252949350505050565b6000806000606084860312156200015b57600080fd5b83516001600160401b03808211156200017357600080fd5b620001818783880162000096565b945060208601519150808211156200019857600080fd5b50620001a78682870162000096565b604086015190935090506001600160a01b0381168114620001c757600080fd5b809150509250925092565b600181811c90821680620001e757607f821691505b6020821081036200020857634e487b7160e01b600052602260045260246000fd5b50919050565b601f8211156200025c57600081815260208120601f850160051c81016020861015620002375750805b601f850160051c820191505b81811015620002585782815560010162000243565b5050505b505050565b81516001600160401b038111156200027d576200027d62000080565b62000295816200028e8454620001d2565b846200020e565b602080601f831160018114620002cd5760008415620002b45750858301515b600019600386901b1c1916600185901b17855562000258565b600085815260208120601f198616915b82811015620002fe57888601518255948401946001909101908401620002dd565b50858210156200031d5787850151600019600388901b60f8161c191681555b5050505050600190811b01905550565b6112e8806200033d6000396000f3fe608060405234801561001057600080fd5b50600436106101215760003560e01c80636352211e116100ad5780639c6d2976116100715780639c6d297614610267578063a22cb46514610287578063b88d4fde1461029a578063c87b56dd146102ad578063e985e9c5146102c057600080fd5b80636352211e1461021d578063681973601461023057806370a082311461024357806375794a3c1461025657806395d89b411461025f57600080fd5b806323b872dd116100f457806323b872dd146101a357806328fb7745146101b657806340c10f19146101d657806342842e0e146101f7578063578ec33f1461020a57600080fd5b806301ffc9a71461012657806306fdde031461014e578063081812fc14610163578063095ea7b31461018e575b600080fd5b610139610134366004610ea9565b6102d3565b60405190151581526020015b60405180910390f35b610156610325565b6040516101459190610f16565b610176610171366004610f29565b6103b7565b6040516001600160a01b039091168152602001610145565b6101a161019c366004610f5e565b6103e0565b005b6101a16101b1366004610f88565b6103ef565b6101c96101c4366004610fc4565b61047f565b6040516101459190610fdf565b6101e96101e4366004610f5e565b6105ce565b604051908152602001610145565b6101a1610205366004610f88565b610654565b600654610176906001600160a01b031681565b61017661022b366004610f29565b610674565b6101e961023e36600461102e565b61067f565b6101e9610251366004610fc4565b6106cd565b6101e960075481565b610156610715565b6101e9610275366004610f29565b60009081526008602052604090205490565b6101a161029536600461105a565b610724565b6101a16102a83660046110ac565b61072f565b6101566102bb366004610f29565b610746565b6101396102ce366004611188565b6107bb565b60006001600160e01b031982166380ac58cd60e01b148061030457506001600160e01b03198216635b5e139f60e01b145b8061031f57506301ffc9a760e01b6001600160e01b03198316145b92915050565b606060008054610334906111b2565b80601f0160208091040260200160405190810160405280929190818152602001828054610360906111b2565b80156103ad5780601f10610382576101008083540402835291602001916103ad565b820191906000526020600020905b81548152906001019060200180831161039057829003601f168201915b5050505050905090565b60006103c2826107e9565b506000828152600460205260409020546001600160a01b031661031f565b6103eb828233610822565b5050565b6001600160a01b03821661041e57604051633250574960e11b8152600060048201526024015b60405180910390fd5b600061042b83833361082f565b9050836001600160a01b0316816001600160a01b031614610479576040516364283d7b60e01b81526001600160a01b0380861660048301526024820184905282166044820152606401610415565b50505050565b6001600160a01b03811660009081526009602090815260408083208054825181850281018501909352808352606094938301828280156104de57602002820191906000526020600020905b8154815260200190600101908083116104ca575b505050505090506000815167ffffffffffffffff81111561050157610501611096565b60405190808252806020026020018201604052801561054657816020015b604080518082019091526000808252602082015281526020019060019003908161051f5790505b50905060005b82518110156105c6576040518060400160405280848381518110610572576105726111ec565b6020026020010151815260200160086000848152602001908152602001600020548152508282815181106105a8576105a86111ec565b602002602001018190525080806105be90611202565b91505061054c565b505050919050565b6006546000906001600160a01b0316336001600160a01b0316146105f157600080fd5b5060078054908190600061060483611202565b91905055506106138382610928565b6000818152600860209081526040808320949094556001600160a01b0390941681526009845291822080546001810182559083529290912090910181905590565b61066f8383836040518060200160405280600081525061072f565b505050565b600061031f826107e9565b6000828152600260205260408120546001600160a01b038381169116146106b95760405163153e35b760e11b815260040160405180910390fd5b505060009081526008602052604090205490565b60006001600160a01b0382166106f9576040516322718ad960e21b815260006004820152602401610415565b506001600160a01b031660009081526003602052604090205490565b606060018054610334906111b2565b6103eb33838361098d565b61073a8484846103ef565b61047984848484610a2c565b6060610751826107e9565b50600061076960408051602081019091526000815290565b9050600081511161078957604051806020016040528060008152506107b4565b8061079384610b55565b6040516020016107a4929190611229565b6040516020818303038152906040525b9392505050565b6001600160a01b03918216600090815260056020908152604080832093909416825291909152205460ff1690565b6000818152600260205260408120546001600160a01b03168061031f57604051637e27328960e01b815260048101849052602401610415565b61066f8383836001610be8565b6000828152600260205260408120546001600160a01b039081169083161561085c5761085c818486610cee565b6001600160a01b0381161561089a57610879600085600080610be8565b6001600160a01b038116600090815260036020526040902080546000190190555b6001600160a01b038516156108c9576001600160a01b0385166000908152600360205260409020805460010190555b60008481526002602052604080822080546001600160a01b0319166001600160a01b0389811691821790925591518793918516917fddf252ad1be2c89b69c2b068fc378daa952ba7f163c4a11628f55a4df523b3ef91a4949350505050565b6001600160a01b03821661095257604051633250574960e11b815260006004820152602401610415565b60006109608383600061082f565b90506001600160a01b0381161561066f576040516339e3563760e11b815260006004820152602401610415565b6001600160a01b0382166109bf57604051630b61174360e31b81526001600160a01b0383166004820152602401610415565b6001600160a01b03838116600081815260056020908152604080832094871680845294825291829020805460ff191686151590811790915591519182527f17307eab39ab6107e8899845ad3d59bd9653f200f220920489ca2b5937696c31910160405180910390a3505050565b6001600160a01b0383163b1561047957604051630a85bd0160e11b81526001600160a01b0384169063150b7a0290610a6e903390889087908790600401611258565b6020604051808303816000875af1925050508015610aa9575060408051601f3d908101601f19168201909252610aa691810190611295565b60015b610b12573d808015610ad7576040519150601f19603f3d011682016040523d82523d6000602084013e610adc565b606091505b508051600003610b0a57604051633250574960e11b81526001600160a01b0385166004820152602401610415565b805181602001fd5b6001600160e01b03198116630a85bd0160e11b14610b4e57604051633250574960e11b81526001600160a01b0385166004820152602401610415565b5050505050565b60606000610b6283610d52565b600101905060008167ffffffffffffffff811115610b8257610b82611096565b6040519080825280601f01601f191660200182016040528015610bac576020820181803683370190505b5090508181016020015b600019016f181899199a1a9b1b9c1cb0b131b232b360811b600a86061a8153600a8504945084610bb657509392505050565b8080610bfc57506001600160a01b03821615155b15610cbe576000610c0c846107e9565b90506001600160a01b03831615801590610c385750826001600160a01b0316816001600160a01b031614155b8015610c4b5750610c4981846107bb565b155b15610c745760405163a9fbf51f60e01b81526001600160a01b0384166004820152602401610415565b8115610cbc5783856001600160a01b0316826001600160a01b03167f8c5be1e5ebec7d5bd14f71427d1e84f3dd0314c0f7b2291e5b200ac8c7c3b92560405160405180910390a45b505b5050600090815260046020526040902080546001600160a01b0319166001600160a01b0392909216919091179055565b610cf9838383610e2a565b61066f576001600160a01b038316610d2757604051637e27328960e01b815260048101829052602401610415565b60405163177e802f60e01b81526001600160a01b038316600482015260248101829052604401610415565b60008072184f03e93ff9f4daa797ed6e38ed64bf6a1f0160401b8310610d915772184f03e93ff9f4daa797ed6e38ed64bf6a1f0160401b830492506040015b6d04ee2d6d415b85acef81000000008310610dbd576d04ee2d6d415b85acef8100000000830492506020015b662386f26fc100008310610ddb57662386f26fc10000830492506010015b6305f5e1008310610df3576305f5e100830492506008015b6127108310610e0757612710830492506004015b60648310610e19576064830492506002015b600a831061031f5760010192915050565b60006001600160a01b03831615801590610e885750826001600160a01b0316846001600160a01b03161480610e645750610e6484846107bb565b80610e8857506000828152600460205260409020546001600160a01b038481169116145b949350505050565b6001600160e01b031981168114610ea657600080fd5b50565b600060208284031215610ebb57600080fd5b81356107b481610e90565b60005b83811015610ee1578181015183820152602001610ec9565b50506000910152565b60008151808452610f02816020860160208601610ec6565b601f01601f19169290920160200192915050565b6020815260006107b46020830184610eea565b600060208284031215610f3b57600080fd5b5035919050565b80356001600160a01b0381168114610f5957600080fd5b919050565b60008060408385031215610f7157600080fd5b610f7a83610f42565b946020939093013593505050565b600080600060608486031215610f9d57600080fd5b610fa684610f42565b9250610fb460208501610f42565b9150604084013590509250925092565b600060208284031215610fd657600080fd5b6107b482610f42565b602080825282518282018190526000919060409081850190868401855b8281101561102157815180518552860151868501529284019290850190600101610ffc565b5091979650505050505050565b6000806040838503121561104157600080fd5b8235915061105160208401610f42565b90509250929050565b6000806040838503121561106d57600080fd5b61107683610f42565b91506020830135801515811461108b57600080fd5b809150509250929050565b634e487b7160e01b600052604160045260246000fd5b600080600080608085870312156110c257600080fd5b6110cb85610f42565b93506110d960208601610f42565b925060408501359150606085013567ffffffffffffffff808211156110fd57600080fd5b818701915087601f83011261111157600080fd5b81358181111561112357611123611096565b604051601f8201601f19908116603f0116810190838211818310171561114b5761114b611096565b816040528281528a602084870101111561116457600080fd5b82602086016020830137600060208483010152809550505050505092959194509250565b6000806040838503121561119b57600080fd5b6111a483610f42565b915061105160208401610f42565b600181811c908216806111c657607f821691505b6020821081036111e657634e487b7160e01b600052602260045260246000fd5b50919050565b634e487b7160e01b600052603260045260246000fd5b60006001820161122257634e487b7160e01b600052601160045260246000fd5b5060010190565b6000835161123b818460208801610ec6565b83519083019061124f818360208801610ec6565b01949350505050565b6001600160a01b038581168252841660208201526040810183905260806060820181905260009061128b90830184610eea565b9695505050505050565b6000602082840312156112a757600080fd5b81516107b481610e9056fea2646970667358221220f0a77fada03e3f8eb8e314838777098c8051fe762c41015d4d651a7a968ceeed64736f6c6343000814003360a060405234801561001057600080fd5b50604051610ad5380380610ad583398101604081905261002f91610070565b600080546001600160a01b0319166001600160a01b03938416179055166080526100a3565b80516001600160a01b038116811461006b57600080fd5b919050565b6000806040838503121561008357600080fd5b61008c83610054565b915061009a60208401610054565b90509250929050565b608051610a0b6100ca6000396000818160ad0152818160cf01526101510152610a0b6000f3fe6080604052600436106100345760003560e01c806312d36171146100395780639e3079cb1461004e578063fe31311214610071575b600080fd5b61004c610047366004610366565b6100a9565b005b34801561005a57600080fd5b506001546040519081526020015b60405180910390f35b34801561007d57600080fd5b5061009161008c36600461039e565b610329565b6040516001600160a01b039091168152602001610068565b60007f0000000000000000000000000000000000000000000000000000000000000000837f00000000000000000000000000000000000000000000000000000000000000006001600160a01b031663ad044f496040518163ffffffff1660e01b8152600401602060405180830381865afa15801561012b573d6000803e3d6000fd5b505050506040513d601f19601f8201168201806040525081019061014f91906103b7565b7f00000000000000000000000000000000000000000000000000000000000000006001600160a01b03166375794a3c6040518163ffffffff1660e01b8152600401602060405180830381865afa1580156101ad573d6000803e3d6000fd5b505050506040513d601f19601f820116820180604052508101906101d191906103b7565b856040516101de90610359565b6001600160a01b03958616815294909316602085015260408401919091526060830152608082015260a001604051809103906000f080158015610225573d6000803e3d6000fd5b506040516323b872dd60e01b81523360048201526001600160a01b03808316602483015260448201859052919250908416906323b872dd906064016020604051808303816000875af115801561027f573d6000803e3d6000fd5b505050506040513d601f19601f820116820180604052508101906102a391906103d0565b506001805480820182556000919091527fb10e2d527612073b26eecdfd717e6a320cf44b4afac2b0732d9fcbe2b7fa0cf60180546001600160a01b0319166001600160a01b0383169081179091556040519081527f83a48fbcfc991335314e74d0496aab6a1987e992ddc85dddbcc4d6dd6ef2e9fc9060200160405180910390a1505050565b60006001828154811061033e5761033e6103f9565b6000918252602090912001546001600160a01b031692915050565b6105c68061041083390190565b6000806040838503121561037957600080fd5b82356001600160a01b038116811461039057600080fd5b946020939093013593505050565b6000602082840312156103b057600080fd5b5035919050565b6000602082840312156103c957600080fd5b5051919050565b6000602082840312156103e257600080fd5b815180151581146103f257600080fd5b9392505050565b634e487b7160e01b600052603260045260246000fdfe60a06040526040516105c63803806105c683398101604081905261002291610076565b6001600160a01b03948516608052600155600080546001600160a01b03191693909416929092179092556002919091556003556100c4565b80516001600160a01b038116811461007157600080fd5b919050565b600080600080600060a0868803121561008e57600080fd5b6100978661005a565b94506100a56020870161005a565b6040870151606088015160809098015196999198509695945092505050565b6080516104e16100e560003960008181608401526101d201526104e16000f3fe608060405234801561001057600080fd5b506004361061007d5760003560e01c806375794a3c1161005b57806375794a3c146100e8578063ad044f49146100f0578063dbe7e3bd146100f8578063fc0c546a1461012b57600080fd5b80630c340a2414610082578063379607f5146100c15780633e9491a2146100d6575b600080fd5b7f00000000000000000000000000000000000000000000000000000000000000005b6040516001600160a01b0390911681526020015b60405180910390f35b6100d46100cf3660046103da565b61013c565b005b6001545b6040519081526020016100b8565b6003546100da565b6002546100da565b61011b6101063660046103da565b60009081526004602052604090205460ff1690565b60405190151581526020016100b8565b6000546001600160a01b03166100a4565b60008181526004602052604090205460ff161561018b5760405162461bcd60e51b8152602060048201526008602482015267436c61696d65642160c01b60448201526064015b60405180910390fd5b60035481106101ce5760405162461bcd60e51b815260206004820152600f60248201526e125b9d985b1a59081d1bdad95b9259608a1b6044820152606401610182565b60007f00000000000000000000000000000000000000000000000000000000000000006001600160a01b031663fc0c546a6040518163ffffffff1660e01b8152600401602060405180830381865afa15801561022e573d6000803e3d6000fd5b505050506040513d601f19601f8201168201806040525081019061025291906103f3565b6001600160a01b0316636819736083336040516001600160e01b031960e085901b16815260048101929092526001600160a01b03166024820152604401602060405180830381865afa1580156102ac573d6000803e3d6000fd5b505050506040513d601f19601f820116820180604052508101906102d09190610423565b6000838152600460205260408120805460ff191660019081179091556002549054929350909161030190849061043c565b61030b9190610467565b6000549091506001600160a01b031663a9059cbb336040516001600160e01b031960e084901b1681526001600160a01b039091166004820152602481018490526044016020604051808303816000875af115801561036d573d6000803e3d6000fd5b505050506040513d601f19601f820116820180604052508101906103919190610489565b507fc15f451120b13b6b40c6ad6203614ab3088308bef9150c0d6f46ea79bf46422433604080516001600160a01b039092168252602082018690520160405180910390a1505050565b6000602082840312156103ec57600080fd5b5035919050565b60006020828403121561040557600080fd5b81516001600160a01b038116811461041c57600080fd5b9392505050565b60006020828403121561043557600080fd5b5051919050565b808202811582820484141761046157634e487b7160e01b600052601160045260246000fd5b92915050565b60008261048457634e487b7160e01b600052601260045260246000fd5b500490565b60006020828403121561049b57600080fd5b8151801515811461041c57600080fdfea264697066735822122098c04150e993f61ce996820fa1c11e2dff4a16b541db4d0d42e95afd27c1b6ef64736f6c63430008140033a264697066735822122016f533d10f7960e120c81dbdf3f77481aa91dd1919c79bfcac45605cbe2a8dda64736f6c63430008140033a2646970667358221220c65f440d95651dd5d24957a13a7110ffd388d081fb093ab4982603977e98fd6b64736f6c63430008140033",
  "devdoc": {
    "errors": {
      "InvalidInitialization()": [
        {
          "details": "The contract is already initialized."
        }
      ],
      "NotInitializing()": [
        {
          "details": "The contract is not initializing."
        }
      ],
      "OwnableInvalidOwner(address)": [
        {
          "details": "The owner is not a valid owner account. (eg. `address(0)`)"
        }
      ],
      "OwnableUnauthorizedAccount(address)": [
        {
          "details": "The caller account is not authorized to perform an operation."
        }
      ]
    },
    "events": {
      "Initialized(uint64)": {
        "details": "Triggered when the contract has been initialized or reinitialized."
      }
    },
    "kind": "dev",
    "methods": {
      "constructor": {
        "custom:oz-upgrades-unsafe-allow": "constructor"
      },
      "owner()": {
        "details": "Returns the address of the current owner."
      },
      "renounceOwnership()": {
        "details": "Leaves the contract without owner. It will not be possible to call `onlyOwner` functions. Can only be called by the current owner. NOTE: Renouncing ownership will leave the contract without an owner, thereby disabling any functionality that is only available to the owner."
      },
      "transferOwnership(address)": {
        "details": "Transfers ownership of the contract to a new account (`newOwner`). Can only be called by the current owner."
      }
    },
    "version": 1
  },
  "userdoc": {
    "kind": "user",
    "methods": {},
    "version": 1
  },
  "storageLayout": {
    "storage": [
      {
        "astId": 7978,
        "contract": "contracts/GovernorFactory.sol:GovernorFactory",
        "label": "_campaign",
        "offset": 0,
        "slot": "0",
        "type": "t_contract(ICampaign)8873"
      },
      {
        "astId": 7980,
        "contract": "contracts/GovernorFactory.sol:GovernorFactory",
        "label": "nextGovernorId",
        "offset": 0,
        "slot": "1",
        "type": "t_uint256"
      },
      {
        "astId": 7984,
        "contract": "contracts/GovernorFactory.sol:GovernorFactory",
        "label": "_governors",
        "offset": 0,
        "slot": "2",
        "type": "t_mapping(t_uint256,t_address)"
      },
      {
        "astId": 7988,
        "contract": "contracts/GovernorFactory.sol:GovernorFactory",
        "label": "_hasGovernor",
        "offset": 0,
        "slot": "3",
        "type": "t_mapping(t_address,t_bool)"
      },
      {
        "astId": 7993,
        "contract": "contracts/GovernorFactory.sol:GovernorFactory",
        "label": "_founderGovernorIds",
        "offset": 0,
        "slot": "4",
        "type": "t_mapping(t_address,t_array(t_uint256)dyn_storage)"
      },
      {
        "astId": 7995,
        "contract": "contracts/GovernorFactory.sol:GovernorFactory",
        "label": "votingDelay",
        "offset": 0,
        "slot": "5",
        "type": "t_uint64"
      },
      {
        "astId": 7997,
        "contract": "contracts/GovernorFactory.sol:GovernorFactory",
        "label": "votingPeriod",
        "offset": 8,
        "slot": "5",
        "type": "t_uint64"
      },
      {
        "astId": 7999,
        "contract": "contracts/GovernorFactory.sol:GovernorFactory",
        "label": "timelockPeriod",
        "offset": 16,
        "slot": "5",
        "type": "t_uint64"
      },
      {
        "astId": 8001,
        "contract": "contracts/GovernorFactory.sol:GovernorFactory",
        "label": "queuingPeriod",
        "offset": 24,
        "slot": "5",
        "type": "t_uint64"
      }
    ],
    "types": {
      "t_address": {
        "encoding": "inplace",
        "label": "address",
        "numberOfBytes": "20"
      },
      "t_array(t_uint256)dyn_storage": {
        "base": "t_uint256",
        "encoding": "dynamic_array",
        "label": "uint256[]",
        "numberOfBytes": "32"
      },
      "t_bool": {
        "encoding": "inplace",
        "label": "bool",
        "numberOfBytes": "1"
      },
      "t_contract(ICampaign)8873": {
        "encoding": "inplace",
        "label": "contract ICampaign",
        "numberOfBytes": "20"
      },
      "t_mapping(t_address,t_array(t_uint256)dyn_storage)": {
        "encoding": "mapping",
        "key": "t_address",
        "label": "mapping(address => uint256[])",
        "numberOfBytes": "32",
        "value": "t_array(t_uint256)dyn_storage"
      },
      "t_mapping(t_address,t_bool)": {
        "encoding": "mapping",
        "key": "t_address",
        "label": "mapping(address => bool)",
        "numberOfBytes": "32",
        "value": "t_bool"
      },
      "t_mapping(t_uint256,t_address)": {
        "encoding": "mapping",
        "key": "t_uint256",
        "label": "mapping(uint256 => address)",
        "numberOfBytes": "32",
        "value": "t_address"
      },
      "t_uint256": {
        "encoding": "inplace",
        "label": "uint256",
        "numberOfBytes": "32"
      },
      "t_uint64": {
        "encoding": "inplace",
        "label": "uint64",
        "numberOfBytes": "8"
      }
    }
  }
}