{
  "address": "0x8E3dDC39b96404ebBDa9719EB7515AdD81b4523e",
  "abi": [
    {
      "inputs": [],
      "stateMutability": "nonpayable",
      "type": "constructor"
    },
    {
      "inputs": [],
      "name": "InvalidInitialization",
      "type": "error"
    },
    {
      "inputs": [],
      "name": "NotInitializing",
      "type": "error"
    },
    {
      "inputs": [
        {
          "internalType": "address",
          "name": "owner",
          "type": "address"
        }
      ],
      "name": "OwnableInvalidOwner",
      "type": "error"
    },
    {
      "inputs": [
        {
          "internalType": "address",
          "name": "account",
          "type": "address"
        }
      ],
      "name": "OwnableUnauthorizedAccount",
      "type": "error"
    },
    {
      "anonymous": false,
      "inputs": [
        {
          "indexed": false,
          "internalType": "uint256",
          "name": "governorId",
          "type": "uint256"
        },
        {
          "indexed": true,
          "internalType": "address",
          "name": "governor",
          "type": "address"
        },
        {
          "indexed": true,
          "internalType": "address",
          "name": "founder",
          "type": "address"
        },
        {
          "indexed": true,
          "internalType": "bytes32",
          "name": "descriptionHash",
          "type": "bytes32"
        }
      ],
      "name": "GovernorCreated",
      "type": "event"
    },
    {
      "anonymous": false,
      "inputs": [
        {
          "indexed": false,
          "internalType": "uint64",
          "name": "version",
          "type": "uint64"
        }
      ],
      "name": "Initialized",
      "type": "event"
    },
    {
      "anonymous": false,
      "inputs": [
        {
          "indexed": true,
          "internalType": "address",
          "name": "previousOwner",
          "type": "address"
        },
        {
          "indexed": true,
          "internalType": "address",
          "name": "newOwner",
          "type": "address"
        }
      ],
      "name": "OwnershipTransferred",
      "type": "event"
    },
    {
      "inputs": [
        {
          "internalType": "string",
          "name": "name",
          "type": "string"
        },
        {
          "internalType": "string",
          "name": "tokenName",
          "type": "string"
        },
        {
          "internalType": "string",
          "name": "tokenSymbol",
          "type": "string"
        },
        {
          "internalType": "bytes32",
          "name": "descriptionHash",
          "type": "bytes32"
        }
      ],
      "name": "createGovernor",
      "outputs": [
        {
          "internalType": "uint256",
          "name": "governorId",
          "type": "uint256"
        }
      ],
      "stateMutability": "payable",
      "type": "function"
    },
    {
      "inputs": [
        {
          "internalType": "address",
          "name": "founder",
          "type": "address"
        }
      ],
      "name": "founderGovernorAddresses",
      "outputs": [
        {
          "internalType": "address[]",
          "name": "",
          "type": "address[]"
        }
      ],
      "stateMutability": "view",
      "type": "function"
    },
    {
      "inputs": [
        {
          "internalType": "address",
          "name": "founder",
          "type": "address"
        }
      ],
      "name": "founderGovernorIds",
      "outputs": [
        {
          "internalType": "uint256[]",
          "name": "",
          "type": "uint256[]"
        }
      ],
      "stateMutability": "view",
      "type": "function"
    },
    {
      "inputs": [
        {
          "internalType": "address",
          "name": "governorAddress",
          "type": "address"
        },
        {
          "internalType": "address",
          "name": "tokenOwner",
          "type": "address"
        }
      ],
      "name": "getAllToken",
      "outputs": [
        {
          "components": [
            {
              "internalType": "uint256",
              "name": "id",
              "type": "uint256"
            },
            {
              "internalType": "uint256",
              "name": "campaignId",
              "type": "uint256"
            },
            {
              "internalType": "uint256",
              "name": "value",
              "type": "uint256"
            }
          ],
          "internalType": "struct IVotes.TokenInfos[]",
          "name": "",
          "type": "tuple[]"
        },
        {
          "internalType": "uint256",
          "name": "totalValue",
          "type": "uint256"
        }
      ],
      "stateMutability": "view",
      "type": "function"
    },
    {
      "inputs": [
        {
          "internalType": "uint256",
          "name": "governorId",
          "type": "uint256"
        }
      ],
      "name": "governor",
      "outputs": [
        {
          "internalType": "address",
          "name": "",
          "type": "address"
        }
      ],
      "stateMutability": "view",
      "type": "function"
    },
    {
      "inputs": [
        {
          "internalType": "address",
          "name": "governorAddress",
          "type": "address"
        }
      ],
      "name": "hasGovernor",
      "outputs": [
        {
          "internalType": "bool",
          "name": "",
          "type": "bool"
        }
      ],
      "stateMutability": "view",
      "type": "function"
    },
    {
      "inputs": [
        {
          "internalType": "address",
          "name": "initialOwner_",
          "type": "address"
        },
        {
          "internalType": "address",
          "name": "campaign_",
          "type": "address"
        },
        {
          "internalType": "address",
          "name": "revenuePoolFactoryCreator_",
          "type": "address"
        },
        {
          "internalType": "uint64",
          "name": "timelockPeriod_",
          "type": "uint64"
        },
        {
          "internalType": "uint64",
          "name": "queuingPeriod_",
          "type": "uint64"
        }
      ],
      "name": "initialize",
      "outputs": [],
      "stateMutability": "nonpayable",
      "type": "function"
    },
    {
      "inputs": [
        {
          "internalType": "address",
          "name": "governorAddress",
          "type": "address"
        }
      ],
      "name": "lastProposal",
      "outputs": [
        {
          "components": [
            {
              "internalType": "address",
              "name": "proposer",
              "type": "address"
            },
            {
              "internalType": "uint64",
              "name": "voteStart",
              "type": "uint64"
            },
            {
              "internalType": "uint64",
              "name": "voteDuration",
              "type": "uint64"
            },
            {
              "internalType": "bytes32",
              "name": "descriptionHash",
              "type": "bytes32"
            },
            {
              "internalType": "bool",
              "name": "executed",
              "type": "bool"
            },
            {
              "internalType": "bool",
              "name": "canceled",
              "type": "bool"
            },
            {
              "internalType": "uint64",
              "name": "etaBlocks",
              "type": "uint64"
            }
          ],
          "internalType": "struct IGovernor.ProposalCore",
          "name": "",
          "type": "tuple"
        }
      ],
      "stateMutability": "view",
      "type": "function"
    },
    {
      "inputs": [],
      "name": "nextGovernorId",
      "outputs": [
        {
          "internalType": "uint256",
          "name": "",
          "type": "uint256"
        }
      ],
      "stateMutability": "view",
      "type": "function"
    },
    {
      "inputs": [],
      "name": "owner",
      "outputs": [
        {
          "internalType": "address",
          "name": "",
          "type": "address"
        }
      ],
      "stateMutability": "view",
      "type": "function"
    },
    {
      "inputs": [],
      "name": "queuingPeriod",
      "outputs": [
        {
          "internalType": "uint64",
          "name": "",
          "type": "uint64"
        }
      ],
      "stateMutability": "view",
      "type": "function"
    },
    {
      "inputs": [],
      "name": "renounceOwnership",
      "outputs": [],
      "stateMutability": "nonpayable",
      "type": "function"
    },
    {
      "inputs": [],
      "name": "timelockPeriod",
      "outputs": [
        {
          "internalType": "uint64",
          "name": "",
          "type": "uint64"
        }
      ],
      "stateMutability": "view",
      "type": "function"
    },
    {
      "inputs": [
        {
          "internalType": "address",
          "name": "newOwner",
          "type": "address"
        }
      ],
      "name": "transferOwnership",
      "outputs": [],
      "stateMutability": "nonpayable",
      "type": "function"
    },
    {
      "inputs": [],
      "name": "votingDelay",
      "outputs": [
        {
          "internalType": "uint64",
          "name": "",
          "type": "uint64"
        }
      ],
      "stateMutability": "view",
      "type": "function"
    },
    {
      "inputs": [],
      "name": "votingPeriod",
      "outputs": [
        {
          "internalType": "uint64",
          "name": "",
          "type": "uint64"
        }
      ],
      "stateMutability": "view",
      "type": "function"
    }
  ],
  "transactionHash": "0x6f99aec17d9c78b678acd94ad449be7b142f5619b4d7a02b9679aa344eeab785",
  "args": [],
  "numDeployments": 3,
  "solcInputHash": "c569ff56d79f9923b4633cec7f088459",
  "bytecode": "0x608060405234801561001057600080fd5b50615a26806100206000396000f3fe608060405260043610620001075760003560e01c80638e0c28811162000095578063c7265bc61162000060578063c7265bc6146200036a578063d942c83814620003ff578063dba5f5321462000439578063f2fde38b146200045057600080fd5b80638e0c2881146200028a5780639f04c55814620002bf578063b02bd920146200030d578063c1819bfd146200033657600080fd5b80634606ce1b11620000d65780634606ce1b14620001c45780635aafbe1b14620001eb578063715018a6146200021f5780638da5cb5b146200023757600080fd5b806302a251a3146200010c5780632ecaf67514620001525780633932abb1146200017b57806340907929146200019d575b600080fd5b3480156200011957600080fd5b506006546200013590600160401b90046001600160401b031681565b6040516001600160401b0390911681526020015b60405180910390f35b3480156200015f57600080fd5b506006546200013590600160801b90046001600160401b031681565b3480156200018857600080fd5b5060065462000135906001600160401b031681565b348015620001aa57600080fd5b50620001c2620001bc36600462000e61565b62000475565b005b348015620001d157600080fd5b50620001dc60025481565b60405190815260200162000149565b348015620001f857600080fd5b50620002106200020a36600462000edd565b62000688565b60405162000149919062000efd565b3480156200022c57600080fd5b50620001c2620007a1565b3480156200024457600080fd5b507f9016d09d72d40fdae2fd8ceac6b6234c7706214fd39c1cd1e609a0528c199300546001600160a01b03165b6040516001600160a01b03909116815260200162000149565b3480156200029757600080fd5b50620002af620002a936600462000f4c565b620007b9565b6040516200014992919062000f8a565b348015620002cc57600080fd5b50620002fc620002de36600462000edd565b6001600160a01b031660009081526004602052604090205460ff1690565b604051901515815260200162000149565b3480156200031a57600080fd5b506006546200013590600160c01b90046001600160401b031681565b3480156200034357600080fd5b506200035b6200035536600462000edd565b620008f4565b60405162000149919062000fec565b3480156200037757600080fd5b506200038f6200038936600462000edd565b62000962565b60405162000149919081516001600160a01b031681526020808301516001600160401b03908116918301919091526040808401518216908301526060808401519083015260808084015115159083015260a08381015115159083015260c092830151169181019190915260e00190565b3480156200040c57600080fd5b50620002716200041e36600462001026565b6000908152600360205260409020546001600160a01b031690565b620001dc6200044a3660046200112a565b62000a97565b3480156200045d57600080fd5b50620001c26200046f36600462000edd565b62000cab565b7ff0c57e16840df040f15088dc2f81fe391c3923bec73e23a9662efc9c229c6a008054600160401b810460ff1615906001600160401b0316600081158015620004bb5750825b90506000826001600160401b03166001148015620004d85750303b155b905081158015620004e7575080155b15620005065760405163f92ee8a960e01b815260040160405180910390fd5b845467ffffffffffffffff1916600117855583156200053157845460ff60401b1916600160401b1785555b6001600160a01b038a16620005635760405162461bcd60e51b81526004016200055a90620011c3565b60405180910390fd5b6001600160a01b0389166200058c5760405162461bcd60e51b81526004016200055a90620011c3565b6001600160a01b038816620005b55760405162461bcd60e51b81526004016200055a90620011c3565b620005c08a62000cef565b600080546001600160a01b03808c166001600160a01b031992831617909255600680546001600160401b038a8116600160c01b026001600160c01b03918d16600160801b02919091166fffffffffffffffffffffffffffffffff9092169190911717905560018054928b169290911691909117905583156200067c57845460ff60401b19168555604051600181527fc7f505b2f371ae2175ee4913f4499e1f2633a7b5936321eed1cdaeb6115181d29060200160405180910390a15b50505050505050505050565b6001600160a01b038116600090815260056020526040812054606091816001600160401b03811115620006bf57620006bf62001040565b604051908082528060200260200182016040528015620006e9578160200160208202803683370190505b50905060005b8281101562000799576001600160a01b038516600090815260056020526040812080546003929190849081106200072a576200072a620011ec565b9060005260206000200154815260200190815260200160002060009054906101000a90046001600160a01b03168282815181106200076c576200076c620011ec565b6001600160a01b039092166020928302919091019091015280620007908162001218565b915050620006ef565b509392505050565b620007ab62000d04565b620007b7600062000d62565b565b6060600080846001600160a01b031663fc0c546a6040518163ffffffff1660e01b8152600401602060405180830381865afa158015620007fd573d6000803e3d6000fd5b505050506040513d601f19601f8201168201806040525081019062000823919062001234565b6040516328fb774560e01b81526001600160a01b03868116600483015291909116906328fb774590602401600060405180830381865afa1580156200086c573d6000803e3d6000fd5b505050506040513d6000823e601f3d908101601f1916820160405262000896919081019062001254565b905060005b8151811015620008ea57818181518110620008ba57620008ba620011ec565b60200260200101516040015183620008d3919062001335565b925080620008e18162001218565b9150506200089b565b5091509250929050565b6001600160a01b0381166000908152600560209081526040918290208054835181840281018401909452808452606093928301828280156200095657602002820191906000526020600020905b81548152602001906001019080831162000941575b50505050509050919050565b6040805160e081018252600080825260208201819052918101829052606081018290526080810182905260a0810182905260c08101919091526000826001600160a01b0316630c0512e96040518163ffffffff1660e01b8152600401602060405180830381865afa158015620009dc573d6000803e3d6000fd5b505050506040513d601f19601f8201168201806040525081019062000a02919062001351565b9050801562000a91576001600160a01b0383166390f37b2562000a276001846200136b565b6040518263ffffffff1660e01b815260040162000a4691815260200190565b60e060405180830381865afa15801562000a64573d6000803e3d6000fd5b505050506040513d601f19601f8201168201806040525081019062000a8a9190620013a4565b9392505050565b50919050565b6002805490600190600062000aad838562001335565b9091555050600080546006546040518892889288928892889233926001600160a01b03909216916001600160401b03600160801b8304811692600160c01b9004169062000afa9062000e27565b62000b0e99989796959493929190620014aa565b604051809103906000f08015801562000b2b573d6000803e3d6000fd5b50600154604051634049384d60e11b81523360048201526001600160a01b03808416602483015292935060009290911690638092709a906044016020604051808303816000875af115801562000b85573d6000803e3d6000fd5b505050506040513d601f19601f8201168201806040525081019062000bab919062001234565b6040516377420bf960e11b81526001600160a01b0380831660048301529192509083169063ee8417f290602401600060405180830381600087803b15801562000bf357600080fd5b505af115801562000c08573d6000803e3d6000fd5b505050600084815260036020908152604080832080546001600160a01b0319166001600160a01b03881690811790915580845260048352818420805460ff1916600190811790915533808652600585528386208054928301815586529484902001889055905187815288945090917f21466ef202a9992802848b92b6b11851fbcb7c88719789b3b7f6b40cbcae297b910160405180910390a45050949350505050565b62000cb562000d04565b6001600160a01b03811662000ce157604051631e4fbdf760e01b8152600060048201526024016200055a565b62000cec8162000d62565b50565b62000cf962000dd3565b62000cec8162000e1d565b3362000d377f9016d09d72d40fdae2fd8ceac6b6234c7706214fd39c1cd1e609a0528c199300546001600160a01b031690565b6001600160a01b031614620007b75760405163118cdaa760e01b81523360048201526024016200055a565b7f9016d09d72d40fdae2fd8ceac6b6234c7706214fd39c1cd1e609a0528c19930080546001600160a01b031981166001600160a01b03848116918217845560405192169182907f8be0079c531659141344cd1fd0a4f28419497f9722a3daafe3b4186f6b6457e090600090a3505050565b7ff0c57e16840df040f15088dc2f81fe391c3923bec73e23a9662efc9c229c6a0054600160401b900460ff16620007b757604051631afcd79f60e31b815260040160405180910390fd5b62000cb562000dd3565b6144ba806200153783390190565b6001600160a01b038116811462000cec57600080fd5b6001600160401b038116811462000cec57600080fd5b600080600080600060a0868803121562000e7a57600080fd5b853562000e878162000e35565b9450602086013562000e998162000e35565b9350604086013562000eab8162000e35565b9250606086013562000ebd8162000e4b565b9150608086013562000ecf8162000e4b565b809150509295509295909350565b60006020828403121562000ef057600080fd5b813562000a8a8162000e35565b6020808252825182820181905260009190848201906040850190845b8181101562000f405783516001600160a01b03168352928401929184019160010162000f19565b50909695505050505050565b6000806040838503121562000f6057600080fd5b823562000f6d8162000e35565b9150602083013562000f7f8162000e35565b809150509250929050565b6040808252835182820181905260009190606090818501906020808901865b8381101562000fd857815180518652838101518487015287015187860152938501939082019060010162000fa9565b505095909501959095525092949350505050565b6020808252825182820181905260009190848201906040850190845b8181101562000f405783518352928401929184019160010162001008565b6000602082840312156200103957600080fd5b5035919050565b634e487b7160e01b600052604160045260246000fd5b604051606081016001600160401b03811182821017156200107b576200107b62001040565b60405290565b604051601f8201601f191681016001600160401b0381118282101715620010ac57620010ac62001040565b604052919050565b600082601f830112620010c657600080fd5b81356001600160401b03811115620010e257620010e262001040565b620010f7601f8201601f191660200162001081565b8181528460208386010111156200110d57600080fd5b816020850160208301376000918101602001919091529392505050565b600080600080608085870312156200114157600080fd5b84356001600160401b03808211156200115957600080fd5b6200116788838901620010b4565b955060208701359150808211156200117e57600080fd5b6200118c88838901620010b4565b94506040870135915080821115620011a357600080fd5b50620011b287828801620010b4565b949793965093946060013593505050565b6020808252600f908201526e496e76616c6964206164647265737360881b604082015260600190565b634e487b7160e01b600052603260045260246000fd5b634e487b7160e01b600052601160045260246000fd5b6000600182016200122d576200122d62001202565b5060010190565b6000602082840312156200124757600080fd5b815162000a8a8162000e35565b600060208083850312156200126857600080fd5b82516001600160401b03808211156200128057600080fd5b818501915085601f8301126200129557600080fd5b815181811115620012aa57620012aa62001040565b620012ba848260051b0162001081565b81815284810192506060918202840185019188831115620012da57600080fd5b938501935b82851015620013295780858a031215620012f95760008081fd5b6200130362001056565b8551815286860151878201526040808701519082015284529384019392850192620012df565b50979650505050505050565b808201808211156200134b576200134b62001202565b92915050565b6000602082840312156200136457600080fd5b5051919050565b818103818111156200134b576200134b62001202565b80516200138e8162000e4b565b919050565b805180151581146200138e57600080fd5b600060e08284031215620013b757600080fd5b60405160e081018181106001600160401b0382111715620013dc57620013dc62001040565b6040528251620013ec8162000e35565b81526020830151620013fe8162000e4b565b60208201526040830151620014138162000e4b565b604082015260608381015190820152620014306080840162001393565b60808201526200144360a0840162001393565b60a08201526200145660c0840162001381565b60c08201529392505050565b6000815180845260005b818110156200148a576020818501810151868301820152016200146c565b506000602082860101526020601f19601f83011685010191505092915050565b6000610120808352620014c08184018d62001462565b90508281036020840152620014d6818c62001462565b90508281036040840152620014ec818b62001462565b6060840199909952505060808101959095526001600160a01b0393841660a08601529190921660c08401526001600160401b0391821660e08401521661010090910152939250505056fe60a06040523480156200001157600080fd5b50604051620044ba380380620044ba833981016040819052620000349162000222565b878784828282604051620000489062000112565b620000569392919062000340565b604051809103906000f08015801562000073573d6000803e3d6000fd5b506001600160a01b031660805250600191506200009390508a8262000411565b50600295909555600393909355600480546001600160a01b03199081166001600160a01b03948516179091556005805490911691909216179055600e80546001600160801b0316600160801b6001600160401b03938416026001600160c01b031617600160c01b929093169190910291909117905550620004dd915050565b6117c58062002cf583390190565b634e487b7160e01b600052604160045260246000fd5b60005b838110156200015357818101518382015260200162000139565b50506000910152565b600082601f8301126200016e57600080fd5b81516001600160401b03808211156200018b576200018b62000120565b604051601f8301601f19908116603f01168101908282118183101715620001b657620001b662000120565b81604052838152866020858801011115620001d057600080fd5b620001e384602083016020890162000136565b9695505050505050565b80516001600160a01b03811681146200020557600080fd5b919050565b80516001600160401b03811681146200020557600080fd5b60008060008060008060008060006101208a8c0312156200024257600080fd5b89516001600160401b03808211156200025a57600080fd5b620002688d838e016200015c565b9a5060208c01519150808211156200027f57600080fd5b6200028d8d838e016200015c565b995060408c0151915080821115620002a457600080fd5b50620002b38c828d016200015c565b97505060608a0151955060808a01519450620002d260a08b01620001ed565b9350620002e260c08b01620001ed565b9250620002f260e08b016200020a565b9150620003036101008b016200020a565b90509295985092959850929598565b600081518084526200032c81602086016020860162000136565b601f01601f19169290920160200192915050565b60608152600062000355606083018662000312565b828103602084015262000369818662000312565b91505060018060a01b0383166040830152949350505050565b600181811c908216806200039757607f821691505b602082108103620003b857634e487b7160e01b600052602260045260246000fd5b50919050565b601f8211156200040c57600081815260208120601f850160051c81016020861015620003e75750805b601f850160051c820191505b818110156200040857828155600101620003f3565b5050505b505050565b81516001600160401b038111156200042d576200042d62000120565b62000445816200043e845462000382565b84620003be565b602080601f8311600181146200047d5760008415620004645750858301515b600019600386901b1c1916600185901b17855562000408565b600085815260208120601f198616915b82811015620004ae578886015182559484019460019091019084016200048d565b5085821015620004cd5787850151600019600388901b60f8161c191681555b5050505050600190811b01905550565b6080516127f56200050060003960008181610843015261197101526127f56000f3fe6080604052600436106102045760003560e01c806384e2fc7311610118578063b788849f116100a0578063dea112a61161006f578063dea112a6146107c2578063eb56ea71146107e2578063ee8417f2146107f7578063fc0c546a14610834578063fe0d94c11461086757600080fd5b8063b788849f14610742578063c01f9e3714610762578063c59057e414610782578063ddf0b009146107a257600080fd5b80639b644a23116100e75780639b644a2314610679578063a9a95294146106a6578063ab58fb8e146106c7578063ad044f4914610706578063b02bd9201461071b57600080fd5b806384e2fc73146104e857806385dcee931461050857806390f37b251461051d57806391ddadf41461066657600080fd5b80633932abb11161019b5780634d853ee51161016a5780634d853ee514610412578063544ffc9c1461043057806364390ff11461048557806375794a3c146104b5578063811e539c146104ca57600080fd5b80633932abb1146103835780633e4f49e6146103a357806340e58ee5146103d05780634d13a884146103f257600080fd5b806329ccde3e116101d757806329ccde3e146102e15780632d63f693146103015780632ecaf6751461033e578063369a7bb41461036557600080fd5b806302a251a31461020957806306fdde03146102525780630c0512e914610274578063143489d014610293575b600080fd5b34801561021557600080fd5b50600e54610235906801000000000000000090046001600160401b031681565b6040516001600160401b0390911681526020015b60405180910390f35b34801561025e57600080fd5b5061026761087a565b6040516102499190611c95565b34801561028057600080fd5b506008545b604051908152602001610249565b34801561029f57600080fd5b506102c96102ae366004611ca8565b6000908152600a60205260409020546001600160a01b031690565b6040516001600160a01b039091168152602001610249565b3480156102ed57600080fd5b506102856102fc366004611f20565b61090c565b34801561030d57600080fd5b5061028561031c366004611ca8565b6000908152600a6020526040902054600160a01b90046001600160401b031690565b34801561034a57600080fd5b50600e5461023590600160801b90046001600160401b031681565b34801561037157600080fd5b506006546001600160a01b03166102c9565b34801561038f57600080fd5b50600e54610235906001600160401b031681565b3480156103af57600080fd5b506103c36103be366004611ca8565b610959565b6040516102499190612009565b3480156103dc57600080fd5b506103f06103eb366004611ca8565b610a88565b005b3480156103fe57600080fd5b5061028561040d366004612017565b610d01565b34801561041e57600080fd5b506004546001600160a01b03166102c9565b34801561043c57600080fd5b5061046a61044b366004611ca8565b6000908152602081905260409020805460018201546002909201549092565b60408051938452602084019290925290820152606001610249565b34801561049157600080fd5b506104a56104a03660046120b3565b610d3d565b6040519015158152602001610249565b3480156104c157600080fd5b50600754610285565b3480156104d657600080fd5b506005546001600160a01b03166102c9565b3480156104f457600080fd5b506102856105033660046120e6565b610d62565b34801561051457600080fd5b50600254610285565b34801561052957600080fd5b506105f7610538366004611ca8565b6040805160e081018252600080825260208201819052918101829052606081018290526080810182905260a0810182905260c0810191909152506000908152600a6020908152604091829020825160e08101845281546001600160a01b03811682526001600160401b03600160a01b9091048116938201939093526001820154831693810193909352600281015460608401526003015460ff80821615156080850152610100820416151560a08401526201000090041660c082015290565b604051610249919081516001600160a01b031681526020808301516001600160401b03908116918301919091526040808401518216908301526060808401519083015260808084015115159083015260a08381015115159083015260c092830151169181019190915260e00190565b34801561067257600080fd5b5042610285565b34801561068557600080fd5b50610285610694366004611ca8565b60009081526009602052604090205490565b3480156106b257600080fd5b506104a56106c1366004611ca8565b50600090565b3480156106d357600080fd5b506102856106e2366004611ca8565b6000908152600a60205260409020600301546201000090046001600160401b031690565b34801561071257600080fd5b50600d54610285565b34801561072757600080fd5b50600e5461023590600160c01b90046001600160401b031681565b34801561074e57600080fd5b506103f061075d3660046120b3565b610dbc565b34801561076e57600080fd5b5061028561077d366004611ca8565b610e10565b34801561078e57600080fd5b5061028561079d36600461213c565b610e51565b3480156107ae57600080fd5b506103f06107bd366004611ca8565b610e8b565b3480156107ce57600080fd5b506102856107dd3660046121cb565b611119565b3480156107ee57600080fd5b50600354610285565b34801561080357600080fd5b506103f06108123660046121f7565b600680546001600160a01b0319166001600160a01b0392909216919091179055565b34801561084057600080fd5b507f00000000000000000000000000000000000000000000000000000000000000006102c9565b6103f0610875366004611ca8565b611131565b60606001805461088990612212565b80601f01602080910402602001604051908101604052809291908181526020018280546108b590612212565b80156109025780601f106108d757610100808354040283529160200191610902565b820191906000526020600020905b8154815290600101906020018083116108e557829003601f168201915b5050505050905090565b60006109206004546001600160a01b031690565b6001600160a01b0316336001600160a01b03161461093d57600080fd5b3361094d88888888858989611363565b98975050505050505050565b6000818152600a60205260408120600381015460ff80821691610100900416811561098957506007949350505050565b801561099a57506002949350505050565b6000858152600a6020526040812054600160a01b90046001600160401b03169050806000036109e457604051636ad0607560e01b8152600481018790526024015b60405180910390fd5b428082106109f9575060009695505050505050565b6000610a0488610e10565b9050818110610a1b57506001979650505050505050565b6000888152602081905260409020805460019091015411610a4457506003979650505050505050565b6000888152600a60205260409020600301546201000090046001600160401b0316600003610a7a57506004979650505050505050565b506005979650505050505050565b610ad481610a96600761158f565b610aa0600661158f565b610aaa600261158f565b6001610ab7600782612262565b610ac290600261235f565b610acc919061236e565b1818186115b2565b506000818152600a6020908152604080832060038101805461ff001916610100179055600b909252822090915b8154811015610cc757610cb5826000018281548110610b2257610b22612381565b6000918252602090912001546001840180546001600160a01b039092169184908110610b5057610b50612381565b9060005260206000200154846002018481548110610b7057610b70612381565b906000526020600020018054610b8590612212565b80601f0160208091040260200160405190810160405280929190818152602001828054610bb190612212565b8015610bfe5780601f10610bd357610100808354040283529160200191610bfe565b820191906000526020600020905b815481529060010190602001808311610be157829003601f168201915b5050505050856003018581548110610c1857610c18612381565b906000526020600020018054610c2d90612212565b80601f0160208091040260200160405190810160405280929190818152602001828054610c5990612212565b8015610ca65780601f10610c7b57610100808354040283529160200191610ca6565b820191906000526020600020905b815481529060010190602001808311610c8957829003601f168201915b505050505087600201546115f8565b80610cbf81612397565b915050610b01565b506040518381527f789cf55be980739dad1d0699b93b58e806b51c9d96619bfa8fe0a28abaa7b30c906020015b60405180910390a1505050565b60008585858585604051602001610d1c9594939291906123b0565b60405160208183030381529060405280519060200120905095945050505050565b60008281526020818152604080832084845260030190915290205460ff165b92915050565b600033815b8451811015610db357610d9586868381518110610d8657610d86612381565b60200260200101518487611625565b610d9f90846123fc565b925080610dab81612397565b915050610d67565b50509392505050565b6005546001600160a01b0316336001600160a01b031614610ddc57600080fd5b81600d6000828254610dee91906123fc565b925050819055508060076000828254610e0791906123fc565b90915550505050565b6000818152600a6020526040812060018101549054610e42916001600160401b0390811691600160a01b90041661240f565b6001600160401b031692915050565b600084848484604051602001610e6a94939291906124ff565b60408051601f19818403018152919052805160209091012095945050505050565b610e9e81610e99600461158f565b6115b2565b506000818152600a60209081526040808320600b9092528220600e5491929091610ee290600160801b90046001600160401b031642610edd91906123fc565b6116bd565b905060005b82548110156110ad5761109b836000018281548110610f0857610f08612381565b6000918252602090912001546001850180546001600160a01b039092169184908110610f3657610f36612381565b9060005260206000200154856002018481548110610f5657610f56612381565b906000526020600020018054610f6b90612212565b80601f0160208091040260200160405190810160405280929190818152602001828054610f9790612212565b8015610fe45780601f10610fb957610100808354040283529160200191610fe4565b820191906000526020600020905b815481529060010190602001808311610fc757829003601f168201915b5050505050866003018581548110610ffe57610ffe612381565b90600052602060002001805461101390612212565b80601f016020809104026020016040519081016040528092919081815260200182805461103f90612212565b801561108c5780601f106110615761010080835404028352916020019161108c565b820191906000526020600020905b81548152906001019060200180831161106f57829003601f168201915b505050505088600201546116f7565b806110a581612397565b915050610ee7565b5060038301805469ffffffffffffffff00001916620100006001600160401b038416908102919091179091556040805186815260208101929092527f9a2e42fd6722813d69113e7d0079d3d940171428df7373df9c7f7617cfda2892910160405180910390a150505050565b60003361112885858386611625565b95945050505050565b61113f81610e99600561158f565b506000818152600a60209081526040808320600b909252822090915b81548110156113215761130f82600001828154811061117c5761117c612381565b6000918252602090912001546001840180546001600160a01b0390921691849081106111aa576111aa612381565b90600052602060002001548460020184815481106111ca576111ca612381565b9060005260206000200180546111df90612212565b80601f016020809104026020016040519081016040528092919081815260200182805461120b90612212565b80156112585780601f1061122d57610100808354040283529160200191611258565b820191906000526020600020905b81548152906001019060200180831161123b57829003601f168201915b505050505085600301858154811061127257611272612381565b90600052602060002001805461128790612212565b80601f01602080910402602001604051908101604052809291908181526020018280546112b390612212565b80156113005780601f106112d557610100808354040283529160200191611300565b820191906000526020600020905b8154815290600101906020018083116112e357829003601f168201915b505050505087600201546117a6565b8061131981612397565b91505061115b565b5060038201805460ff191660011790556040517f712ae1383f79ac853f8d882153778e0260ef8f03b504e2866e0593e04d2b291f90610cf49085815260200190565b600061137188888888610e51565b90508651885114158061138657508551885114155b8061139057508751155b156113c557875186518851604051630447b05d60e41b81526004810193909352602483019190915260448201526064016109db565b6000818152600a6020526040902054600160a01b90046001600160401b03161561141157806113f382610959565b6040516331b75e4d60e01b81526109db92919060009060040161254a565b600880546000908152600960205260408120839055815460019291906114389084906123fc565b90915550506000818152600a6020908152604080832080546001600160401b03808916600160a01b026001600160e01b03199092166001600160a01b038b161791909117825560018201805491881667ffffffffffffffff1990921691909117905560028101899055600b835292208a5190916114b99183918d0190611ae8565b5088516114cf90600183019060208c0190611b49565b5087516114e590600383019060208b0190611b84565b507fac49ff3066899b93337312741adcd3e27b6c7894ca0a63cdd17839d4b4e617a783878c8c8e516001600160401b0381111561152457611524611cc1565b60405190808252806020026020018201604052801561155757816020015b60608152602001906001900390816115425790505b508d8b6115648c8261240f565b8f60405161157a9998979695949392919061256c565b60405180910390a15050979650505050505050565b60008160078111156115a3576115a3611fd1565b600160ff919091161b92915050565b6000806115be84610959565b90506000836115cc8361158f565b16036115f1578381846040516331b75e4d60e01b81526004016109db9392919061254a565b9392505050565b60006116078686868686610d01565b6000908152600c60205260409020805460ff19169055505050505050565b600061163585610e99600161158f565b50600754841061164457600080fd5b6000611650858561196d565b905061165e86868584611a03565b50604080518781526020810187905260ff8516818301526060810183905290516001600160a01b038616917f09edf95a1d307616592af8ad4c162009c3a245ac77b6c828653408fcc2799952919081900360800190a295945050505050565b60006001600160401b038211156116f357604080516306dfcc6560e41b81526004810191909152602481018390526044016109db565b5090565b60006117068686868686610d01565b6000818152600c602052604090205490915060ff16156117865760405162461bcd60e51b815260206004820152603560248201527f476f7665726e6f723a3a5f71756575654f7065726174696f6e3a204f706572616044820152743a34b7b7103430b9903132b2b71038bab2bab2b21760591b60648201526084016109db565b6000908152600c60205260409020805460ff191660011790555050505050565b60006117b58686868686610d01565b6000818152600c602052604090205490915060ff1661183c5760405162461bcd60e51b815260206004820152603a60248201527f476f7665726e6f723a3a5f657865637574654f7065726174696f6e3a204f706560448201527f726174696f6e206861736e2774206265656e207175657565642e00000000000060648201526084016109db565b6000818152600c60205260408120805460ff1916905584516060910361186357508261188f565b84805190602001208460405160200161187d92919061264b565b60405160208183030381529060405290505b6000876001600160a01b031687836040516118aa919061267c565b60006040518083038185875af1925050503d80600081146118e7576040519150601f19603f3d011682016040523d82523d6000602084013e6118ec565b606091505b50509050806119635760405162461bcd60e51b815260206004820152603c60248201527f476f7665726e6f723a3a5f657865637574654f7065726174696f6e3a2054726160448201527f6e73616374696f6e20657865637574696f6e2072657665727465642e0000000060648201526084016109db565b5050505050505050565b60007f0000000000000000000000000000000000000000000000000000000000000000604051630340cb9b60e51b8152600481018590526001600160a01b0384811660248301529190911690636819736090604401602060405180830381865afa1580156119df573d6000803e3d6000fd5b505050506040513d601f19601f820116820180604052508101906115f19190612698565b6000848152602081815260408083208684526003810190925282205460ff1615611a4357604051630715719360e31b8152600481018690526024016109db565b60008581526003820160205260409020805460ff1916600117905560ff8416611a855782816000016000828254611a7a91906123fc565b90915550611ade9050565b60001960ff851601611aa55782816001016000828254611a7a91906123fc565b60011960ff851601611ac55782816002016000828254611a7a91906123fc565b6040516303599be160e11b815260040160405180910390fd5b5090949350505050565b828054828255906000526020600020908101928215611b3d579160200282015b82811115611b3d57825182546001600160a01b0319166001600160a01b03909116178255602090920191600190910190611b08565b506116f3929150611bd6565b828054828255906000526020600020908101928215611b3d579160200282015b82811115611b3d578251825591602001919060010190611b69565b828054828255906000526020600020908101928215611bca579160200282015b82811115611bca5782518290611bba9082612700565b5091602001919060010190611ba4565b506116f3929150611beb565b5b808211156116f35760008155600101611bd7565b808211156116f3576000611bff8282611c08565b50600101611beb565b508054611c1490612212565b6000825580601f10611c24575050565b601f016020900490600052602060002090810190611c429190611bd6565b50565b60005b83811015611c60578181015183820152602001611c48565b50506000910152565b60008151808452611c81816020860160208601611c45565b601f01601f19169290920160200192915050565b6020815260006115f16020830184611c69565b600060208284031215611cba57600080fd5b5035919050565b634e487b7160e01b600052604160045260246000fd5b604051601f8201601f191681016001600160401b0381118282101715611cff57611cff611cc1565b604052919050565b60006001600160401b03821115611d2057611d20611cc1565b5060051b60200190565b80356001600160a01b0381168114611d4157600080fd5b919050565b600082601f830112611d5757600080fd5b81356020611d6c611d6783611d07565b611cd7565b82815260059290921b84018101918181019086841115611d8b57600080fd5b8286015b84811015611dad57611da081611d2a565b8352918301918301611d8f565b509695505050505050565b600082601f830112611dc957600080fd5b81356020611dd9611d6783611d07565b82815260059290921b84018101918181019086841115611df857600080fd5b8286015b84811015611dad5780358352918301918301611dfc565b60006001600160401b03831115611e2c57611e2c611cc1565b611e3f601f8401601f1916602001611cd7565b9050828152838383011115611e5357600080fd5b828260208301376000602084830101529392505050565b600082601f830112611e7b57600080fd5b6115f183833560208501611e13565b600082601f830112611e9b57600080fd5b81356020611eab611d6783611d07565b82815260059290921b84018101918181019086841115611eca57600080fd5b8286015b84811015611dad5780356001600160401b03811115611eed5760008081fd5b611efb8986838b0101611e6a565b845250918301918301611ece565b80356001600160401b0381168114611d4157600080fd5b60008060008060008060c08789031215611f3957600080fd5b86356001600160401b0380821115611f5057600080fd5b611f5c8a838b01611d46565b97506020890135915080821115611f7257600080fd5b611f7e8a838b01611db8565b96506040890135915080821115611f9457600080fd5b50611fa189828a01611e8a565b94505060608701359250611fb760808801611f09565b9150611fc560a08801611f09565b90509295509295509295565b634e487b7160e01b600052602160045260246000fd5b6008811061200557634e487b7160e01b600052602160045260246000fd5b9052565b60208101610d5c8284611fe7565b600080600080600060a0868803121561202f57600080fd5b61203886611d2a565b94506020860135935060408601356001600160401b038082111561205b57600080fd5b818801915088601f83011261206f57600080fd5b61207e89833560208501611e13565b9450606088013591508082111561209457600080fd5b506120a188828901611e6a565b95989497509295608001359392505050565b600080604083850312156120c657600080fd5b50508035926020909101359150565b803560ff81168114611d4157600080fd5b6000806000606084860312156120fb57600080fd5b8335925060208401356001600160401b0381111561211857600080fd5b61212486828701611db8565b925050612133604085016120d5565b90509250925092565b6000806000806080858703121561215257600080fd5b84356001600160401b038082111561216957600080fd5b61217588838901611d46565b9550602087013591508082111561218b57600080fd5b61219788838901611db8565b945060408701359150808211156121ad57600080fd5b506121ba87828801611e8a565b949793965093946060013593505050565b6000806000606084860312156121e057600080fd5b8335925060208401359150612133604085016120d5565b60006020828403121561220957600080fd5b6115f182611d2a565b600181811c9082168061222657607f821691505b60208210810361224657634e487b7160e01b600052602260045260246000fd5b50919050565b634e487b7160e01b600052601160045260246000fd5b60ff8181168382160190811115610d5c57610d5c61224c565b600181815b808511156122b657816000190482111561229c5761229c61224c565b808516156122a957918102915b93841c9390800290612280565b509250929050565b6000826122cd57506001610d5c565b816122da57506000610d5c565b81600181146122f057600281146122fa57612316565b6001915050610d5c565b60ff84111561230b5761230b61224c565b50506001821b610d5c565b5060208310610133831016604e8410600b8410161715612339575081810a610d5c565b612343838361227b565b80600019048211156123575761235761224c565b029392505050565b60006115f160ff8416836122be565b81810381811115610d5c57610d5c61224c565b634e487b7160e01b600052603260045260246000fd5b6000600182016123a9576123a961224c565b5060010190565b60018060a01b038616815284602082015260a0604082015260006123d760a0830186611c69565b82810360608401526123e98186611c69565b9150508260808301529695505050505050565b80820180821115610d5c57610d5c61224c565b6001600160401b0381811683821601908082111561242f5761242f61224c565b5092915050565b600081518084526020808501945080840160005b8381101561246f5781516001600160a01b03168752958201959082019060010161244a565b509495945050505050565b600081518084526020808501945080840160005b8381101561246f5781518752958201959082019060010161248e565b600081518084526020808501808196508360051b8101915082860160005b858110156124f25782840389526124e0848351611c69565b988501989350908401906001016124c8565b5091979650505050505050565b6080815260006125126080830187612436565b8281036020840152612524818761247a565b9050828103604084015261253881866124aa565b91505082606083015295945050505050565b8381526060810161255e6020830185611fe7565b826040830152949350505050565b60006101208b8352602060018060a01b038c16818501528160408501526125958285018c612436565b915083820360608501526125a9828b61247a565b915083820360808501528189518084528284019150828160051b850101838c0160005b838110156125fa57601f198784030185526125e8838351611c69565b948601949250908501906001016125cc565b505086810360a088015261260e818c6124aa565b9550505050505061262a60c08301866001600160401b03169052565b6001600160401b039390931660e08201526101000152979650505050505050565b6001600160e01b031983168152815160009061266e816004850160208701611c45565b919091016004019392505050565b6000825161268e818460208701611c45565b9190910192915050565b6000602082840312156126aa57600080fd5b5051919050565b601f8211156126fb57600081815260208120601f850160051c810160208610156126d85750805b601f850160051c820191505b818110156126f7578281556001016126e4565b5050505b505050565b81516001600160401b0381111561271957612719611cc1565b61272d816127278454612212565b846126b1565b602080601f831160018114612762576000841561274a5750858301515b600019600386901b1c1916600185901b1785556126f7565b600085815260208120601f198616915b8281101561279157888601518255948401946001909101908401612772565b50858210156127af5787850151600019600388901b60f8161c191681555b5050505050600190811b0190555056fea2646970667358221220e017787acd245a371878b2063b6008345fbb20900906d53039d2c190587888af64736f6c6343000814003360806040523480156200001157600080fd5b50604051620017c5380380620017c5833981016040819052620000349162000145565b8282600062000044838262000261565b50600162000053828262000261565b5050600680546001600160a01b0319166001600160a01b039390931692909217909155506200032d915050565b634e487b7160e01b600052604160045260246000fd5b600082601f830112620000a857600080fd5b81516001600160401b0380821115620000c557620000c562000080565b604051601f8301601f19908116603f01168101908282118183101715620000f057620000f062000080565b816040528381526020925086838588010111156200010d57600080fd5b600091505b8382101562000131578582018301518183018401529082019062000112565b600093810190920192909252949350505050565b6000806000606084860312156200015b57600080fd5b83516001600160401b03808211156200017357600080fd5b620001818783880162000096565b945060208601519150808211156200019857600080fd5b50620001a78682870162000096565b604086015190935090506001600160a01b0381168114620001c757600080fd5b809150509250925092565b600181811c90821680620001e757607f821691505b6020821081036200020857634e487b7160e01b600052602260045260246000fd5b50919050565b601f8211156200025c57600081815260208120601f850160051c81016020861015620002375750805b601f850160051c820191505b81811015620002585782815560010162000243565b5050505b505050565b81516001600160401b038111156200027d576200027d62000080565b62000295816200028e8454620001d2565b846200020e565b602080601f831160018114620002cd5760008415620002b45750858301515b600019600386901b1c1916600185901b17855562000258565b600085815260208120601f198616915b82811015620002fe57888601518255948401946001909101908401620002dd565b50858210156200031d5787850151600019600388901b60f8161c191681555b5050505050600190811b01905550565b611488806200033d6000396000f3fe608060405234801561001057600080fd5b50600436106101375760003560e01c8063578ec33f116100b857806395d89b411161007c57806395d89b41146102b55780639c6d2976146102bd578063a22cb465146102dd578063b88d4fde146102f0578063c87b56dd14610303578063e985e9c51461031657600080fd5b8063578ec33f146102605780636352211e14610273578063681973601461028657806370a082311461029957806375794a3c146102ac57600080fd5b806321cda790116100ff57806321cda790146101da57806323b872dd146101fa57806328fb77451461020d5780633e565a991461022d57806342842e0e1461024d57600080fd5b806301ffc9a71461013c57806306fdde0314610164578063081812fc14610179578063095ea7b3146101a4578063156e29f6146101b9575b600080fd5b61014f61014a366004610fc8565b610329565b60405190151581526020015b60405180910390f35b61016c61037b565b60405161015b9190611035565b61018c610187366004611048565b61040d565b6040516001600160a01b03909116815260200161015b565b6101b76101b236600461107d565b610436565b005b6101cc6101c73660046110a7565b610445565b60405190815260200161015b565b6101ed6101e83660046110da565b6104cd565b60405161015b91906110f5565b6101b7610208366004611139565b610539565b61022061021b3660046110da565b6105c9565b60405161015b9190611175565b6101cc61023b366004611048565b60009081526009602052604090205490565b6101b761025b366004611139565b610773565b60065461018c906001600160a01b031681565b61018c610281366004611048565b610793565b6101cc6102943660046111ce565b61079e565b6101cc6102a73660046110da565b6107ec565b6101cc60075481565b61016c610834565b6101cc6102cb366004611048565b60009081526008602052604090205490565b6101b76102eb3660046111fa565b610843565b6101b76102fe36600461124c565b61084e565b61016c610311366004611048565b610865565b61014f610324366004611328565b6108da565b60006001600160e01b031982166380ac58cd60e01b148061035a57506001600160e01b03198216635b5e139f60e01b145b8061037557506301ffc9a760e01b6001600160e01b03198316145b92915050565b60606000805461038a90611352565b80601f01602080910402602001604051908101604052809291908181526020018280546103b690611352565b80156104035780601f106103d857610100808354040283529160200191610403565b820191906000526020600020905b8154815290600101906020018083116103e657829003601f168201915b5050505050905090565b600061041882610908565b506000828152600460205260409020546001600160a01b0316610375565b610441828233610941565b5050565b6006546000906001600160a01b0316336001600160a01b03161461046857600080fd5b5060078054908190600061047b8361138c565b919050555061048a848261094e565b6000818152600860209081526040808320959095556001600160a01b039095168152600a8552928320805460018101825590845293909220909201819055919050565b6001600160a01b0381166000908152600a602090815260409182902080548351818402810184019094528084526060939283018282801561052d57602002820191906000526020600020905b815481526020019060010190808311610519575b50505050509050919050565b6001600160a01b03821661056857604051633250574960e11b8152600060048201526024015b60405180910390fd5b60006105758383336109b3565b9050836001600160a01b0316816001600160a01b0316146105c3576040516364283d7b60e01b81526001600160a01b038086166004830152602482018490528216604482015260640161055f565b50505050565b6001600160a01b0381166000908152600a6020908152604080832080548251818502810185019093528083526060949383018282801561062857602002820191906000526020600020905b815481526020019060010190808311610614575b505050505090506000815167ffffffffffffffff81111561064b5761064b611236565b6040519080825280602002602001820160405280156106a057816020015b61068d60405180606001604052806000815260200160008152602001600081525090565b8152602001906001900390816106695790505b50905060005b825181101561076b5760405180606001604052808483815181106106cc576106cc6113b3565b60200260200101518152602001600960008685815181106106ef576106ef6113b3565b6020026020010151815260200190815260200160002054815260200160086000868581518110610721576107216113b3565b602002602001015181526020019081526020016000205481525082828151811061074d5761074d6113b3565b602002602001018190525080806107639061138c565b9150506106a6565b509392505050565b61078e8383836040518060200160405280600081525061084e565b505050565b600061037582610908565b6000828152600260205260408120546001600160a01b038381169116146107d85760405163153e35b760e11b815260040160405180910390fd5b505060009081526008602052604090205490565b60006001600160a01b038216610818576040516322718ad960e21b81526000600482015260240161055f565b506001600160a01b031660009081526003602052604090205490565b60606001805461038a90611352565b610441338383610aac565b610859848484610539565b6105c384848484610b4b565b606061087082610908565b50600061088860408051602081019091526000815290565b905060008151116108a857604051806020016040528060008152506108d3565b806108b284610c74565b6040516020016108c39291906113c9565b6040516020818303038152906040525b9392505050565b6001600160a01b03918216600090815260056020908152604080832093909416825291909152205460ff1690565b6000818152600260205260408120546001600160a01b03168061037557604051637e27328960e01b81526004810184905260240161055f565b61078e8383836001610d07565b6001600160a01b03821661097857604051633250574960e11b81526000600482015260240161055f565b6000610986838360006109b3565b90506001600160a01b0381161561078e576040516339e3563760e11b81526000600482015260240161055f565b6000828152600260205260408120546001600160a01b03908116908316156109e0576109e0818486610e0d565b6001600160a01b03811615610a1e576109fd600085600080610d07565b6001600160a01b038116600090815260036020526040902080546000190190555b6001600160a01b03851615610a4d576001600160a01b0385166000908152600360205260409020805460010190555b60008481526002602052604080822080546001600160a01b0319166001600160a01b0389811691821790925591518793918516917fddf252ad1be2c89b69c2b068fc378daa952ba7f163c4a11628f55a4df523b3ef91a4949350505050565b6001600160a01b038216610ade57604051630b61174360e31b81526001600160a01b038316600482015260240161055f565b6001600160a01b03838116600081815260056020908152604080832094871680845294825291829020805460ff191686151590811790915591519182527f17307eab39ab6107e8899845ad3d59bd9653f200f220920489ca2b5937696c31910160405180910390a3505050565b6001600160a01b0383163b156105c357604051630a85bd0160e11b81526001600160a01b0384169063150b7a0290610b8d9033908890879087906004016113f8565b6020604051808303816000875af1925050508015610bc8575060408051601f3d908101601f19168201909252610bc591810190611435565b60015b610c31573d808015610bf6576040519150601f19603f3d011682016040523d82523d6000602084013e610bfb565b606091505b508051600003610c2957604051633250574960e11b81526001600160a01b038516600482015260240161055f565b805181602001fd5b6001600160e01b03198116630a85bd0160e11b14610c6d57604051633250574960e11b81526001600160a01b038516600482015260240161055f565b5050505050565b60606000610c8183610e71565b600101905060008167ffffffffffffffff811115610ca157610ca1611236565b6040519080825280601f01601f191660200182016040528015610ccb576020820181803683370190505b5090508181016020015b600019016f181899199a1a9b1b9c1cb0b131b232b360811b600a86061a8153600a8504945084610cd557509392505050565b8080610d1b57506001600160a01b03821615155b15610ddd576000610d2b84610908565b90506001600160a01b03831615801590610d575750826001600160a01b0316816001600160a01b031614155b8015610d6a5750610d6881846108da565b155b15610d935760405163a9fbf51f60e01b81526001600160a01b038416600482015260240161055f565b8115610ddb5783856001600160a01b0316826001600160a01b03167f8c5be1e5ebec7d5bd14f71427d1e84f3dd0314c0f7b2291e5b200ac8c7c3b92560405160405180910390a45b505b5050600090815260046020526040902080546001600160a01b0319166001600160a01b0392909216919091179055565b610e18838383610f49565b61078e576001600160a01b038316610e4657604051637e27328960e01b81526004810182905260240161055f565b60405163177e802f60e01b81526001600160a01b03831660048201526024810182905260440161055f565b60008072184f03e93ff9f4daa797ed6e38ed64bf6a1f0160401b8310610eb05772184f03e93ff9f4daa797ed6e38ed64bf6a1f0160401b830492506040015b6d04ee2d6d415b85acef81000000008310610edc576d04ee2d6d415b85acef8100000000830492506020015b662386f26fc100008310610efa57662386f26fc10000830492506010015b6305f5e1008310610f12576305f5e100830492506008015b6127108310610f2657612710830492506004015b60648310610f38576064830492506002015b600a83106103755760010192915050565b60006001600160a01b03831615801590610fa75750826001600160a01b0316846001600160a01b03161480610f835750610f8384846108da565b80610fa757506000828152600460205260409020546001600160a01b038481169116145b949350505050565b6001600160e01b031981168114610fc557600080fd5b50565b600060208284031215610fda57600080fd5b81356108d381610faf565b60005b83811015611000578181015183820152602001610fe8565b50506000910152565b60008151808452611021816020860160208601610fe5565b601f01601f19169290920160200192915050565b6020815260006108d36020830184611009565b60006020828403121561105a57600080fd5b5035919050565b80356001600160a01b038116811461107857600080fd5b919050565b6000806040838503121561109057600080fd5b61109983611061565b946020939093013593505050565b6000806000606084860312156110bc57600080fd5b6110c584611061565b95602085013595506040909401359392505050565b6000602082840312156110ec57600080fd5b6108d382611061565b6020808252825182820181905260009190848201906040850190845b8181101561112d57835183529284019291840191600101611111565b50909695505050505050565b60008060006060848603121561114e57600080fd5b61115784611061565b925061116560208501611061565b9150604084013590509250925092565b602080825282518282018190526000919060409081850190868401855b828110156111c15781518051855286810151878601528501518585015260609093019290850190600101611192565b5091979650505050505050565b600080604083850312156111e157600080fd5b823591506111f160208401611061565b90509250929050565b6000806040838503121561120d57600080fd5b61121683611061565b91506020830135801515811461122b57600080fd5b809150509250929050565b634e487b7160e01b600052604160045260246000fd5b6000806000806080858703121561126257600080fd5b61126b85611061565b935061127960208601611061565b925060408501359150606085013567ffffffffffffffff8082111561129d57600080fd5b818701915087601f8301126112b157600080fd5b8135818111156112c3576112c3611236565b604051601f8201601f19908116603f011681019083821181831017156112eb576112eb611236565b816040528281528a602084870101111561130457600080fd5b82602086016020830137600060208483010152809550505050505092959194509250565b6000806040838503121561133b57600080fd5b61134483611061565b91506111f160208401611061565b600181811c9082168061136657607f821691505b60208210810361138657634e487b7160e01b600052602260045260246000fd5b50919050565b6000600182016113ac57634e487b7160e01b600052601160045260246000fd5b5060010190565b634e487b7160e01b600052603260045260246000fd5b600083516113db818460208801610fe5565b8351908301906113ef818360208801610fe5565b01949350505050565b6001600160a01b038581168252841660208201526040810183905260806060820181905260009061142b90830184611009565b9695505050505050565b60006020828403121561144757600080fd5b81516108d381610faf56fea2646970667358221220990c49eb29e57ff77bc1b9eb5a9282e1a11d126b2f41918ee5ab463f21a2afc064736f6c63430008140033a2646970667358221220c7a438d136b0ee31fec38005e197cc38a26dff6d4b0d3394e06b7080a44540bb64736f6c63430008140033",
  "devdoc": {
    "errors": {
      "InvalidInitialization()": [
        {
          "details": "The contract is already initialized."
        }
      ],
      "NotInitializing()": [
        {
          "details": "The contract is not initializing."
        }
      ],
      "OwnableInvalidOwner(address)": [
        {
          "details": "The owner is not a valid owner account. (eg. `address(0)`)"
        }
      ],
      "OwnableUnauthorizedAccount(address)": [
        {
          "details": "The caller account is not authorized to perform an operation."
        }
      ]
    },
    "events": {
      "Initialized(uint64)": {
        "details": "Triggered when the contract has been initialized or reinitialized."
      }
    },
    "kind": "dev",
    "methods": {
      "constructor": {
        "custom:oz-upgrades-unsafe-allow": "constructor"
      },
      "owner()": {
        "details": "Returns the address of the current owner."
      },
      "renounceOwnership()": {
        "details": "Leaves the contract without owner. It will not be possible to call `onlyOwner` functions. Can only be called by the current owner. NOTE: Renouncing ownership will leave the contract without an owner, thereby disabling any functionality that is only available to the owner."
      },
      "transferOwnership(address)": {
        "details": "Transfers ownership of the contract to a new account (`newOwner`). Can only be called by the current owner."
      }
    },
    "version": 1
  },
  "userdoc": {
    "kind": "user",
    "methods": {},
    "version": 1
  },
  "storageLayout": {
    "storage": [
      {
        "astId": 8378,
        "contract": "contracts/GovernorFactory.sol:GovernorFactory",
        "label": "_campaign",
        "offset": 0,
        "slot": "0",
        "type": "t_contract(ICampaign)9614"
      },
      {
        "astId": 8381,
        "contract": "contracts/GovernorFactory.sol:GovernorFactory",
        "label": "_revenuePoolFactoryCreator",
        "offset": 0,
        "slot": "1",
        "type": "t_contract(RevenuePoolFactoryCreator)9489"
      },
      {
        "astId": 8383,
        "contract": "contracts/GovernorFactory.sol:GovernorFactory",
        "label": "nextGovernorId",
        "offset": 0,
        "slot": "2",
        "type": "t_uint256"
      },
      {
        "astId": 8387,
        "contract": "contracts/GovernorFactory.sol:GovernorFactory",
        "label": "_governors",
        "offset": 0,
        "slot": "3",
        "type": "t_mapping(t_uint256,t_address)"
      },
      {
        "astId": 8391,
        "contract": "contracts/GovernorFactory.sol:GovernorFactory",
        "label": "_hasGovernor",
        "offset": 0,
        "slot": "4",
        "type": "t_mapping(t_address,t_bool)"
      },
      {
        "astId": 8396,
        "contract": "contracts/GovernorFactory.sol:GovernorFactory",
        "label": "_founderGovernorIds",
        "offset": 0,
        "slot": "5",
        "type": "t_mapping(t_address,t_array(t_uint256)dyn_storage)"
      },
      {
        "astId": 8398,
        "contract": "contracts/GovernorFactory.sol:GovernorFactory",
        "label": "votingDelay",
        "offset": 0,
        "slot": "6",
        "type": "t_uint64"
      },
      {
        "astId": 8400,
        "contract": "contracts/GovernorFactory.sol:GovernorFactory",
        "label": "votingPeriod",
        "offset": 8,
        "slot": "6",
        "type": "t_uint64"
      },
      {
        "astId": 8402,
        "contract": "contracts/GovernorFactory.sol:GovernorFactory",
        "label": "timelockPeriod",
        "offset": 16,
        "slot": "6",
        "type": "t_uint64"
      },
      {
        "astId": 8404,
        "contract": "contracts/GovernorFactory.sol:GovernorFactory",
        "label": "queuingPeriod",
        "offset": 24,
        "slot": "6",
        "type": "t_uint64"
      }
    ],
    "types": {
      "t_address": {
        "encoding": "inplace",
        "label": "address",
        "numberOfBytes": "20"
      },
      "t_array(t_uint256)dyn_storage": {
        "base": "t_uint256",
        "encoding": "dynamic_array",
        "label": "uint256[]",
        "numberOfBytes": "32"
      },
      "t_bool": {
        "encoding": "inplace",
        "label": "bool",
        "numberOfBytes": "1"
      },
      "t_contract(ICampaign)9614": {
        "encoding": "inplace",
        "label": "contract ICampaign",
        "numberOfBytes": "20"
      },
      "t_contract(RevenuePoolFactoryCreator)9489": {
        "encoding": "inplace",
        "label": "contract RevenuePoolFactoryCreator",
        "numberOfBytes": "20"
      },
      "t_mapping(t_address,t_array(t_uint256)dyn_storage)": {
        "encoding": "mapping",
        "key": "t_address",
        "label": "mapping(address => uint256[])",
        "numberOfBytes": "32",
        "value": "t_array(t_uint256)dyn_storage"
      },
      "t_mapping(t_address,t_bool)": {
        "encoding": "mapping",
        "key": "t_address",
        "label": "mapping(address => bool)",
        "numberOfBytes": "32",
        "value": "t_bool"
      },
      "t_mapping(t_uint256,t_address)": {
        "encoding": "mapping",
        "key": "t_uint256",
        "label": "mapping(uint256 => address)",
        "numberOfBytes": "32",
        "value": "t_address"
      },
      "t_uint256": {
        "encoding": "inplace",
        "label": "uint256",
        "numberOfBytes": "32"
      },
      "t_uint64": {
        "encoding": "inplace",
        "label": "uint64",
        "numberOfBytes": "8"
      }
    }
  }
}