{
  "address": "0xf769735D038e300Ab8a0E0B584E01d48dCE80376",
  "abi": [
    {
      "inputs": [],
      "stateMutability": "nonpayable",
      "type": "constructor"
    },
    {
      "inputs": [],
      "name": "InvalidInitialization",
      "type": "error"
    },
    {
      "inputs": [],
      "name": "NotInitializing",
      "type": "error"
    },
    {
      "inputs": [
        {
          "internalType": "address",
          "name": "owner",
          "type": "address"
        }
      ],
      "name": "OwnableInvalidOwner",
      "type": "error"
    },
    {
      "inputs": [
        {
          "internalType": "address",
          "name": "account",
          "type": "address"
        }
      ],
      "name": "OwnableUnauthorizedAccount",
      "type": "error"
    },
    {
      "anonymous": false,
      "inputs": [
        {
          "indexed": false,
          "internalType": "uint64",
          "name": "version",
          "type": "uint64"
        }
      ],
      "name": "Initialized",
      "type": "event"
    },
    {
      "anonymous": false,
      "inputs": [
        {
          "indexed": true,
          "internalType": "address",
          "name": "previousOwner",
          "type": "address"
        },
        {
          "indexed": true,
          "internalType": "address",
          "name": "newOwner",
          "type": "address"
        }
      ],
      "name": "OwnershipTransferred",
      "type": "event"
    },
    {
      "inputs": [],
      "name": "campaignContract",
      "outputs": [
        {
          "internalType": "address",
          "name": "",
          "type": "address"
        }
      ],
      "stateMutability": "view",
      "type": "function"
    },
    {
      "inputs": [
        {
          "internalType": "address",
          "name": "governorAddress",
          "type": "address"
        },
        {
          "internalType": "uint256",
          "name": "tokenId",
          "type": "uint256"
        }
      ],
      "name": "claim",
      "outputs": [],
      "stateMutability": "nonpayable",
      "type": "function"
    },
    {
      "inputs": [
        {
          "internalType": "address",
          "name": "governorAddress",
          "type": "address"
        },
        {
          "internalType": "uint256",
          "name": "tokenId",
          "type": "uint256"
        }
      ],
      "name": "claimable",
      "outputs": [
        {
          "internalType": "uint256",
          "name": "",
          "type": "uint256"
        },
        {
          "internalType": "uint256",
          "name": "",
          "type": "uint256"
        }
      ],
      "stateMutability": "view",
      "type": "function"
    },
    {
      "inputs": [
        {
          "internalType": "address",
          "name": "governorAddress",
          "type": "address"
        },
        {
          "internalType": "uint256[]",
          "name": "tokenIds",
          "type": "uint256[]"
        }
      ],
      "name": "claimables",
      "outputs": [
        {
          "internalType": "uint256[]",
          "name": "claimables",
          "type": "uint256[]"
        },
        {
          "internalType": "uint256[]",
          "name": "claimeds",
          "type": "uint256[]"
        }
      ],
      "stateMutability": "view",
      "type": "function"
    },
    {
      "inputs": [
        {
          "internalType": "address",
          "name": "governor",
          "type": "address"
        },
        {
          "internalType": "uint256",
          "name": "tokenId",
          "type": "uint256"
        }
      ],
      "name": "claimedAmounts",
      "outputs": [
        {
          "internalType": "uint256",
          "name": "amount",
          "type": "uint256"
        }
      ],
      "stateMutability": "view",
      "type": "function"
    },
    {
      "inputs": [
        {
          "internalType": "address",
          "name": "initialOwner_",
          "type": "address"
        },
        {
          "internalType": "address",
          "name": "campaignContract_",
          "type": "address"
        }
      ],
      "name": "initialize",
      "outputs": [],
      "stateMutability": "nonpayable",
      "type": "function"
    },
    {
      "inputs": [],
      "name": "owner",
      "outputs": [
        {
          "internalType": "address",
          "name": "",
          "type": "address"
        }
      ],
      "stateMutability": "view",
      "type": "function"
    },
    {
      "inputs": [],
      "name": "renounceOwnership",
      "outputs": [],
      "stateMutability": "nonpayable",
      "type": "function"
    },
    {
      "inputs": [
        {
          "internalType": "address",
          "name": "_campaignContract",
          "type": "address"
        }
      ],
      "name": "setCampaignAddress",
      "outputs": [],
      "stateMutability": "nonpayable",
      "type": "function"
    },
    {
      "inputs": [
        {
          "internalType": "address",
          "name": "newOwner",
          "type": "address"
        }
      ],
      "name": "transferOwnership",
      "outputs": [],
      "stateMutability": "nonpayable",
      "type": "function"
    }
  ],
  "transactionHash": "0x776612daf53e763ae6baa1e553b1db7ebd703fc54ef479c21197b3efb624cb80",
  "args": [],
  "numDeployments": 3,
  "solcInputHash": "50ea9daed67011e897a8d5082090566f",
  "bytecode": "0x608060405234801561001057600080fd5b5061001961001e565b6100d0565b7ff0c57e16840df040f15088dc2f81fe391c3923bec73e23a9662efc9c229c6a00805468010000000000000000900460ff161561006e5760405163f92ee8a960e01b815260040160405180910390fd5b80546001600160401b03908116146100cd5780546001600160401b0319166001600160401b0390811782556040519081527fc7f505b2f371ae2175ee4913f4499e1f2633a7b5936321eed1cdaeb6115181d29060200160405180910390a15b50565b610e22806100df6000396000f3fe608060405234801561001057600080fd5b506004361061009e5760003560e01c80638da5cb5b116100665780638da5cb5b14610151578063a3306ae314610181578063aad3ec9614610194578063f2fde38b146101a7578063f7a4cfca146101ba57600080fd5b8063485cc955146100a357806358ae05cd146100b857806360efe334146100e85780636d30641514610110578063715018a614610149575b600080fd5b6100b66100b1366004610aca565b6101db565b005b6000546100cb906001600160a01b031681565b6040516001600160a01b0390911681526020015b60405180910390f35b6100fb6100f6366004610b03565b61035c565b604080519283526020830191909152016100df565b61013b61011e366004610b03565b600160209081526000928352604080842090915290825290205481565b6040519081526020016100df565b6100b6610514565b7f9016d09d72d40fdae2fd8ceac6b6234c7706214fd39c1cd1e609a0528c199300546001600160a01b03166100cb565b6100b661018f366004610b2f565b610528565b6100b66101a2366004610b03565b610578565b6100b66101b5366004610b2f565b610832565b6101cd6101c8366004610b53565b610870565b6040516100df929190610c16565b7ff0c57e16840df040f15088dc2f81fe391c3923bec73e23a9662efc9c229c6a008054600160401b810460ff16159067ffffffffffffffff166000811580156102215750825b905060008267ffffffffffffffff16600114801561023e5750303b155b90508115801561024c575080155b1561026a5760405163f92ee8a960e01b815260040160405180910390fd5b845467ffffffffffffffff19166001178555831561029457845460ff60401b1916600160401b1785555b6001600160a01b0387166102c35760405162461bcd60e51b81526004016102ba90610c44565b60405180910390fd5b6001600160a01b0386166102e95760405162461bcd60e51b81526004016102ba90610c44565b6102f287610987565b600080546001600160a01b0319166001600160a01b038816179055831561035357845460ff60401b19168555604051600181527fc7f505b2f371ae2175ee4913f4499e1f2633a7b5936321eed1cdaeb6115181d29060200160405180910390a15b50505050505050565b600080600080856001600160a01b031663369a7bb46040518163ffffffff1660e01b8152600401602060405180830381865afa1580156103a0573d6000803e3d6000fd5b505050506040513d601f19601f820116820180604052508101906103c49190610c6d565b90506000816001600160a01b031663c5c51dca6040518163ffffffff1660e01b8152600401600060405180830381865afa158015610406573d6000803e3d6000fd5b505050506040513d6000823e601f3d908101601f1916820160405261042e9190810190610cb0565b905060005b81518110156104e25781818151811061044e5761044e610d75565b60200260200101516001600160a01b031663d1d58b25886040518263ffffffff1660e01b815260040161048391815260200190565b602060405180830381865afa1580156104a0573d6000803e3d6000fd5b505050506040513d601f19601f820116820180604052508101906104c49190610d8b565b6104ce9085610dba565b9350806104da81610dd3565b915050610433565b5050506001600160a01b0394909416600090815260016020908152604080832095835294905292909220549293915050565b61051c610998565b61052660006109f3565b565b610530610998565b6001600160a01b0381166105565760405162461bcd60e51b81526004016102ba90610c44565b600080546001600160a01b0319166001600160a01b0392909216919091179055565b6000826001600160a01b031663369a7bb46040518163ffffffff1660e01b8152600401602060405180830381865afa1580156105b8573d6000803e3d6000fd5b505050506040513d601f19601f820116820180604052508101906105dc9190610c6d565b90506000816001600160a01b031663c5c51dca6040518163ffffffff1660e01b8152600401600060405180830381865afa15801561061e573d6000803e3d6000fd5b505050506040513d6000823e601f3d908101601f191682016040526106469190810190610cb0565b905060005b815181101561082b57600082828151811061066857610668610d75565b60200260200101516001600160a01b031663d1d58b25866040518263ffffffff1660e01b815260040161069d91815260200190565b602060405180830381865afa1580156106ba573d6000803e3d6000fd5b505050506040513d601f19601f820116820180604052508101906106de9190610d8b565b905080156108185760008383815181106106fa576106fa610d75565b60200260200101516001600160a01b031663fc0c546a6040518163ffffffff1660e01b8152600401602060405180830381865afa15801561073f573d6000803e3d6000fd5b505050506040513d601f19601f820116820180604052508101906107639190610c6d565b905083838151811061077757610777610d75565b60200260200101516001600160a01b031663379607f5876040518263ffffffff1660e01b81526004016107ac91815260200190565b600060405180830381600087803b1580156107c657600080fd5b505af11580156107da573d6000803e3d6000fd5b505050506001600160a01b038716600090815260016020908152604080832089845290915281208054849290610811908490610dba565b9091555050505b508061082381610dd3565b91505061064b565b5050505050565b61083a610998565b6001600160a01b03811661086457604051631e4fbdf760e01b8152600060048201526024016102ba565b61086d816109f3565b50565b60608060008367ffffffffffffffff81111561088e5761088e610c8a565b6040519080825280602002602001820160405280156108b7578160200160208202803683370190505b50905060008467ffffffffffffffff8111156108d5576108d5610c8a565b6040519080825280602002602001820160405280156108fe578160200160208202803683370190505b50905060005b8581101561097a5761092e8888888481811061092257610922610d75565b9050602002013561035c565b84838151811061094057610940610d75565b6020026020010184848151811061095957610959610d75565b6020908102919091010191909152528061097281610dd3565b915050610904565b5090969095509350505050565b61098f610a64565b61086d81610aad565b336109ca7f9016d09d72d40fdae2fd8ceac6b6234c7706214fd39c1cd1e609a0528c199300546001600160a01b031690565b6001600160a01b0316146105265760405163118cdaa760e01b81523360048201526024016102ba565b7f9016d09d72d40fdae2fd8ceac6b6234c7706214fd39c1cd1e609a0528c19930080546001600160a01b031981166001600160a01b03848116918217845560405192169182907f8be0079c531659141344cd1fd0a4f28419497f9722a3daafe3b4186f6b6457e090600090a3505050565b7ff0c57e16840df040f15088dc2f81fe391c3923bec73e23a9662efc9c229c6a0054600160401b900460ff1661052657604051631afcd79f60e31b815260040160405180910390fd5b61083a610a64565b6001600160a01b038116811461086d57600080fd5b60008060408385031215610add57600080fd5b8235610ae881610ab5565b91506020830135610af881610ab5565b809150509250929050565b60008060408385031215610b1657600080fd5b8235610b2181610ab5565b946020939093013593505050565b600060208284031215610b4157600080fd5b8135610b4c81610ab5565b9392505050565b600080600060408486031215610b6857600080fd5b8335610b7381610ab5565b9250602084013567ffffffffffffffff80821115610b9057600080fd5b818601915086601f830112610ba457600080fd5b813581811115610bb357600080fd5b8760208260051b8501011115610bc857600080fd5b6020830194508093505050509250925092565b600081518084526020808501945080840160005b83811015610c0b57815187529582019590820190600101610bef565b509495945050505050565b604081526000610c296040830185610bdb565b8281036020840152610c3b8185610bdb565b95945050505050565b6020808252600f908201526e496e76616c6964206164647265737360881b604082015260600190565b600060208284031215610c7f57600080fd5b8151610b4c81610ab5565b634e487b7160e01b600052604160045260246000fd5b8051610cab81610ab5565b919050565b60006020808385031215610cc357600080fd5b825167ffffffffffffffff80821115610cdb57600080fd5b818501915085601f830112610cef57600080fd5b815181811115610d0157610d01610c8a565b8060051b604051601f19603f83011681018181108582111715610d2657610d26610c8a565b604052918252848201925083810185019188831115610d4457600080fd5b938501935b82851015610d6957610d5a85610ca0565b84529385019392850192610d49565b98975050505050505050565b634e487b7160e01b600052603260045260246000fd5b600060208284031215610d9d57600080fd5b5051919050565b634e487b7160e01b600052601160045260246000fd5b80820180821115610dcd57610dcd610da4565b92915050565b600060018201610de557610de5610da4565b506001019056fea26469706673582212202df004fb7c932df543e3bcbc0433fc314e941667495154644aecc70fe03c826064736f6c63430008140033",
  "devdoc": {
    "errors": {
      "InvalidInitialization()": [
        {
          "details": "The contract is already initialized."
        }
      ],
      "NotInitializing()": [
        {
          "details": "The contract is not initializing."
        }
      ],
      "OwnableInvalidOwner(address)": [
        {
          "details": "The owner is not a valid owner account. (eg. `address(0)`)"
        }
      ],
      "OwnableUnauthorizedAccount(address)": [
        {
          "details": "The caller account is not authorized to perform an operation."
        }
      ]
    },
    "events": {
      "Initialized(uint64)": {
        "details": "Triggered when the contract has been initialized or reinitialized."
      }
    },
    "kind": "dev",
    "methods": {
      "owner()": {
        "details": "Returns the address of the current owner."
      },
      "renounceOwnership()": {
        "details": "Leaves the contract without owner. It will not be possible to call `onlyOwner` functions. Can only be called by the current owner. NOTE: Renouncing ownership will leave the contract without an owner, thereby disabling any functionality that is only available to the owner."
      },
      "transferOwnership(address)": {
        "details": "Transfers ownership of the contract to a new account (`newOwner`). Can only be called by the current owner."
      }
    },
    "version": 1
  },
  "userdoc": {
    "kind": "user",
    "methods": {},
    "version": 1
  },
  "storageLayout": {
    "storage": [
      {
        "astId": 9069,
        "contract": "contracts/Helper.sol:Helper",
        "label": "campaignContract",
        "offset": 0,
        "slot": "0",
        "type": "t_address"
      },
      {
        "astId": 9075,
        "contract": "contracts/Helper.sol:Helper",
        "label": "claimedAmounts",
        "offset": 0,
        "slot": "1",
        "type": "t_mapping(t_address,t_mapping(t_uint256,t_uint256))"
      }
    ],
    "types": {
      "t_address": {
        "encoding": "inplace",
        "label": "address",
        "numberOfBytes": "20"
      },
      "t_mapping(t_address,t_mapping(t_uint256,t_uint256))": {
        "encoding": "mapping",
        "key": "t_address",
        "label": "mapping(address => mapping(uint256 => uint256))",
        "numberOfBytes": "32",
        "value": "t_mapping(t_uint256,t_uint256)"
      },
      "t_mapping(t_uint256,t_uint256)": {
        "encoding": "mapping",
        "key": "t_uint256",
        "label": "mapping(uint256 => uint256)",
        "numberOfBytes": "32",
        "value": "t_uint256"
      },
      "t_uint256": {
        "encoding": "inplace",
        "label": "uint256",
        "numberOfBytes": "32"
      }
    }
  }
}