{
  "address": "0x7D4aeC270b701fCcB634Efab885d034936Dc3adB",
  "abi": [
    {
      "inputs": [],
      "stateMutability": "nonpayable",
      "type": "constructor"
    },
    {
      "inputs": [
        {
          "internalType": "address",
          "name": "owner_",
          "type": "address"
        },
        {
          "internalType": "address",
          "name": "governor_",
          "type": "address"
        }
      ],
      "name": "createRevenuePoolFactory",
      "outputs": [
        {
          "internalType": "contract RevenuePoolFactory",
          "name": "",
          "type": "address"
        }
      ],
      "stateMutability": "nonpayable",
      "type": "function"
    }
  ],
  "transactionHash": "0x2a0b2c31d38eb151fd3f1d0a7b441605ea2ccb71723011b2240758c155b57f40",
  "args": [],
  "numDeployments": 1,
  "solcInputHash": "73dffdb2ceecf593dc7eb047dd1d52e9",
  "bytecode": "0x608060405234801561001057600080fd5b5061103e806100206000396000f3fe608060405234801561001057600080fd5b506004361061002b5760003560e01c80638092709a14610030575b600080fd5b61004361003e3660046100d5565b61005f565b6040516001600160a01b03909116815260200160405180910390f35b6000808383604051610070906100ac565b6001600160a01b03928316815291166020820152604001604051809103906000f0801580156100a3573d6000803e3d6000fd5b50949350505050565b610f008061010983390190565b80356001600160a01b03811681146100d057600080fd5b919050565b600080604083850312156100e857600080fd5b6100f1836100b9565b91506100ff602084016100b9565b9050925092905056fe60a060405234801561001057600080fd5b50604051610f00380380610f0083398101604081905261002f91610070565b600080546001600160a01b0319166001600160a01b03938416179055166080526100a3565b80516001600160a01b038116811461006b57600080fd5b919050565b6000806040838503121561008357600080fd5b61008c83610054565b915061009a60208401610054565b90509250929050565b608051610e366100ca6000396000818160da0152818160fc015261017e0152610e366000f3fe60806040526004361061003f5760003560e01c806312d36171146100445780639e3079cb14610059578063c5c51dca1461007c578063fe3131121461009e575b600080fd5b6100576100523660046103f5565b6100d6565b005b34801561006557600080fd5b506001546040519081526020015b60405180910390f35b34801561008857600080fd5b50610091610356565b604051610073919061042d565b3480156100aa57600080fd5b506100be6100b936600461047a565b6103b8565b6040516001600160a01b039091168152602001610073565b60007f0000000000000000000000000000000000000000000000000000000000000000837f00000000000000000000000000000000000000000000000000000000000000006001600160a01b031663ad044f496040518163ffffffff1660e01b8152600401602060405180830381865afa158015610158573d6000803e3d6000fd5b505050506040513d601f19601f8201168201806040525081019061017c9190610493565b7f00000000000000000000000000000000000000000000000000000000000000006001600160a01b03166375794a3c6040518163ffffffff1660e01b8152600401602060405180830381865afa1580156101da573d6000803e3d6000fd5b505050506040513d601f19601f820116820180604052508101906101fe9190610493565b8560405161020b906103e8565b6001600160a01b03958616815294909316602085015260408401919091526060830152608082015260a001604051809103906000f080158015610252573d6000803e3d6000fd5b506040516323b872dd60e01b81523360048201526001600160a01b03808316602483015260448201859052919250908416906323b872dd906064016020604051808303816000875af11580156102ac573d6000803e3d6000fd5b505050506040513d601f19601f820116820180604052508101906102d091906104ac565b506001805480820182556000919091527fb10e2d527612073b26eecdfd717e6a320cf44b4afac2b0732d9fcbe2b7fa0cf60180546001600160a01b0319166001600160a01b0383169081179091556040519081527f83a48fbcfc991335314e74d0496aab6a1987e992ddc85dddbcc4d6dd6ef2e9fc9060200160405180910390a1505050565b606060018054806020026020016040519081016040528092919081815260200182805480156103ae57602002820191906000526020600020905b81546001600160a01b03168152600190910190602001808311610390575b5050505050905090565b6000600182815481106103cd576103cd6104d5565b6000918252602090912001546001600160a01b031692915050565b610915806104ec83390190565b6000806040838503121561040857600080fd5b82356001600160a01b038116811461041f57600080fd5b946020939093013593505050565b6020808252825182820181905260009190848201906040850190845b8181101561046e5783516001600160a01b031683529284019291840191600101610449565b50909695505050505050565b60006020828403121561048c57600080fd5b5035919050565b6000602082840312156104a557600080fd5b5051919050565b6000602082840312156104be57600080fd5b815180151581146104ce57600080fd5b9392505050565b634e487b7160e01b600052603260045260246000fdfe60a060405260405161091538038061091583398101604081905261002291610076565b6001600160a01b03948516608052600155600080546001600160a01b03191693909416929092179092556002919091556003556100c4565b80516001600160a01b038116811461007157600080fd5b919050565b600080600080600060a0868803121561008e57600080fd5b6100978661005a565b94506100a56020870161005a565b6040870151606088015160809098015196999198509695945092505050565b6080516108296100ec60003960008181609a0152818161021b01526104f901526108296000f3fe608060405234801561001057600080fd5b50600436106100935760003560e01c8063ad044f4911610066578063ad044f4914610106578063c4763a3a1461010e578063d1d58b251461012e578063dbe7e3bd14610141578063fc0c546a1461017457600080fd5b80630c340a2414610098578063379607f5146100d75780633e9491a2146100ec57806375794a3c146100fe575b600080fd5b7f00000000000000000000000000000000000000000000000000000000000000005b6040516001600160a01b0390911681526020015b60405180910390f35b6100ea6100e5366004610623565b610185565b005b6001545b6040519081526020016100ce565b6003546100f0565b6002546100f0565b61012161011c36600461063c565b610423565b6040516100ce91906106b1565b6100f061013c366004610623565b6104cf565b61016461014f366004610623565b60009081526004602052604090205460ff1690565b60405190151581526020016100ce565b6000546001600160a01b03166100ba565b60008181526004602052604090205460ff16156101d45760405162461bcd60e51b8152602060048201526008602482015267436c61696d65642160c01b60448201526064015b60405180910390fd5b60035481106102175760405162461bcd60e51b815260206004820152600f60248201526e125b9d985b1a59081d1bdad95b9259608a1b60448201526064016101cb565b60007f00000000000000000000000000000000000000000000000000000000000000006001600160a01b031663fc0c546a6040518163ffffffff1660e01b8152600401602060405180830381865afa158015610277573d6000803e3d6000fd5b505050506040513d601f19601f8201168201806040525081019061029b91906106f5565b6001600160a01b0316636819736083336040516001600160e01b031960e085901b16815260048101929092526001600160a01b03166024820152604401602060405180830381865afa1580156102f5573d6000803e3d6000fd5b505050506040513d601f19601f82011682018060405250810190610319919061071e565b6000838152600460205260408120805460ff191660019081179091556002549054929350909161034a90849061074d565b610354919061076a565b6000549091506001600160a01b031663a9059cbb336040516001600160e01b031960e084901b1681526001600160a01b039091166004820152602481018490526044016020604051808303816000875af11580156103b6573d6000803e3d6000fd5b505050506040513d601f19601f820116820180604052508101906103da919061078c565b507fc15f451120b13b6b40c6ad6203614ab3088308bef9150c0d6f46ea79bf46422433604080516001600160a01b039092168252602082018690520160405180910390a1505050565b606060008267ffffffffffffffff811115610440576104406107ae565b604051908082528060200260200182016040528015610469578160200160208202803683370190505b50905060005b838110156104c75761049885858381811061048c5761048c6107c4565b905060200201356104cf565b8282815181106104aa576104aa6107c4565b6020908102919091010152806104bf816107da565b91505061046f565b505092915050565b60006003548210806104f0575060008281526004602052604090205460ff16155b1561061b5760007f00000000000000000000000000000000000000000000000000000000000000006001600160a01b031663fc0c546a6040518163ffffffff1660e01b8152600401602060405180830381865afa158015610555573d6000803e3d6000fd5b505050506040513d601f19601f8201168201806040525081019061057991906106f5565b6001600160a01b0316636819736084336040516001600160e01b031960e085901b16815260048101929092526001600160a01b03166024820152604401602060405180830381865afa1580156105d3573d6000803e3d6000fd5b505050506040513d601f19601f820116820180604052508101906105f7919061071e565b90506002548160015461060a919061074d565b610614919061076a565b9392505050565b506000919050565b60006020828403121561063557600080fd5b5035919050565b6000806020838503121561064f57600080fd5b823567ffffffffffffffff8082111561066757600080fd5b818501915085601f83011261067b57600080fd5b81358181111561068a57600080fd5b8660208260051b850101111561069f57600080fd5b60209290920196919550909350505050565b6020808252825182820181905260009190848201906040850190845b818110156106e9578351835292840192918401916001016106cd565b50909695505050505050565b60006020828403121561070757600080fd5b81516001600160a01b038116811461061457600080fd5b60006020828403121561073057600080fd5b5051919050565b634e487b7160e01b600052601160045260246000fd5b808202811582820484141761076457610764610737565b92915050565b60008261078757634e487b7160e01b600052601260045260246000fd5b500490565b60006020828403121561079e57600080fd5b8151801515811461061457600080fd5b634e487b7160e01b600052604160045260246000fd5b634e487b7160e01b600052603260045260246000fd5b6000600182016107ec576107ec610737565b506001019056fea26469706673582212205f4efe0034b9711c1f5b5195275a49bc554a0e471aa84943e8e21979e0ecb00c64736f6c63430008140033a2646970667358221220ded04209ecb00177cc9fd9b5cd2f9b32a7ee11bccc30038abf39975c1d71445a64736f6c63430008140033a264697066735822122056d9f11e5360b1196f8a60b19dccd9d920e557ad201365a50140a0f4e569392164736f6c63430008140033",
  "devdoc": {
    "kind": "dev",
    "methods": {},
    "version": 1
  },
  "userdoc": {
    "kind": "user",
    "methods": {},
    "version": 1
  },
  "storageLayout": {
    "storage": [],
    "types": null
  }
}